{
  "abi": [
    {
      "type": "constructor",
      "inputs": [
        {
          "name": "_config",
          "type": "tuple",
          "internalType": "struct IDKG.DKGConfig",
          "components": [
            {
              "name": "T_COMMITTEE",
              "type": "uint256",
              "internalType": "uint256"
            },
            {
              "name": "N_COMMITTEE",
              "type": "uint256",
              "internalType": "uint256"
            },
            {
              "name": "verifier",
              "type": "address",
              "internalType": "address"
            }
          ]
        },
        {
          "name": "initMembers",
          "type": "address[]",
          "internalType": "address[]"
        }
      ],
      "stateMutability": "nonpayable"
    },
    {
      "type": "function",
      "name": "Commitment",
      "inputs": [
        {
          "name": "",
          "type": "uint256",
          "internalType": "uint256"
        },
        {
          "name": "",
          "type": "uint256",
          "internalType": "uint256"
        }
      ],
      "outputs": [
        {
          "name": "x",
          "type": "uint256",
          "internalType": "uint256"
        },
        {
          "name": "y",
          "type": "uint256",
          "internalType": "uint256"
        }
      ],
      "stateMutability": "view"
    },
    {
      "type": "function",
      "name": "CommitteeIndices",
      "inputs": [
        {
          "name": "",
          "type": "address",
          "internalType": "address"
        }
      ],
      "outputs": [
        {
          "name": "",
          "type": "uint256",
          "internalType": "uint256"
        }
      ],
      "stateMutability": "view"
    },
    {
      "type": "function",
      "name": "Disclosure",
      "inputs": [
        {
          "name": "",
          "type": "uint256",
          "internalType": "uint256"
        },
        {
          "name": "",
          "type": "uint256",
          "internalType": "uint256"
        }
      ],
      "outputs": [
        {
          "name": "x",
          "type": "uint256",
          "internalType": "uint256"
        },
        {
          "name": "y",
          "type": "uint256",
          "internalType": "uint256"
        }
      ],
      "stateMutability": "view"
    },
    {
      "type": "function",
      "name": "Encrypted",
      "inputs": [
        {
          "name": "",
          "type": "uint256",
          "internalType": "uint256"
        },
        {
          "name": "",
          "type": "uint256",
          "internalType": "uint256"
        }
      ],
      "outputs": [
        {
          "name": "",
          "type": "uint256",
          "internalType": "uint256"
        }
      ],
      "stateMutability": "view"
    },
    {
      "type": "function",
      "name": "PK_COMMITTEE",
      "inputs": [],
      "outputs": [
        {
          "name": "x",
          "type": "uint256",
          "internalType": "uint256"
        },
        {
          "name": "y",
          "type": "uint256",
          "internalType": "uint256"
        }
      ],
      "stateMutability": "view"
    },
    {
      "type": "function",
      "name": "config",
      "inputs": [],
      "outputs": [
        {
          "name": "T_COMMITTEE",
          "type": "uint256",
          "internalType": "uint256"
        },
        {
          "name": "N_COMMITTEE",
          "type": "uint256",
          "internalType": "uint256"
        },
        {
          "name": "verifier",
          "type": "address",
          "internalType": "address"
        }
      ],
      "stateMutability": "view"
    },
    {
      "type": "function",
      "name": "owner",
      "inputs": [],
      "outputs": [
        {
          "name": "",
          "type": "address",
          "internalType": "address"
        }
      ],
      "stateMutability": "view"
    },
    {
      "type": "function",
      "name": "register",
      "inputs": [
        {
          "name": "member",
          "type": "address",
          "internalType": "address"
        }
      ],
      "outputs": [],
      "stateMutability": "nonpayable"
    },
    {
      "type": "function",
      "name": "reveal",
      "inputs": [
        {
          "name": "params",
          "type": "tuple",
          "internalType": "struct IDKG.RevealParams",
          "components": [
            {
              "name": "pkAddressIn",
              "type": "uint256[2]",
              "internalType": "uint256[2]"
            },
            {
              "name": "D",
              "type": "uint256[2]",
              "internalType": "uint256[2]"
            },
            {
              "name": "proof",
              "type": "bytes",
              "internalType": "bytes"
            }
          ]
        }
      ],
      "outputs": [],
      "stateMutability": "nonpayable"
    },
    {
      "type": "function",
      "name": "round1",
      "inputs": [
        {
          "name": "P",
          "type": "tuple[]",
          "internalType": "struct IDKG.BabyJubPoint[]",
          "components": [
            {
              "name": "x",
              "type": "uint256",
              "internalType": "uint256"
            },
            {
              "name": "y",
              "type": "uint256",
              "internalType": "uint256"
            }
          ]
        }
      ],
      "outputs": [],
      "stateMutability": "nonpayable"
    },
    {
      "type": "function",
      "name": "round2",
      "inputs": [
        {
          "name": "params",
          "type": "tuple",
          "internalType": "struct IDKG.Round2Params",
          "components": [
            {
              "name": "encrypted",
              "type": "uint256[]",
              "internalType": "uint256[]"
            },
            {
              "name": "proof",
              "type": "bytes",
              "internalType": "bytes"
            }
          ]
        }
      ],
      "outputs": [],
      "stateMutability": "nonpayable"
    },
    {
      "type": "function",
      "name": "state",
      "inputs": [],
      "outputs": [
        {
          "name": "stage",
          "type": "uint8",
          "internalType": "enum IDKG.Stage"
        },
        {
          "name": "accumulator",
          "type": "uint256",
          "internalType": "uint256"
        }
      ],
      "stateMutability": "view"
    },
    {
      "type": "event",
      "name": "Commit",
      "inputs": [
        {
          "name": "member",
          "type": "address",
          "indexed": true,
          "internalType": "address"
        },
        {
          "name": "memberIndex",
          "type": "uint256",
          "indexed": true,
          "internalType": "uint256"
        }
      ],
      "anonymous": false
    },
    {
      "type": "event",
      "name": "Contribute",
      "inputs": [
        {
          "name": "member",
          "type": "address",
          "indexed": true,
          "internalType": "address"
        },
        {
          "name": "memberIndex",
          "type": "uint256",
          "indexed": true,
          "internalType": "uint256"
        }
      ],
      "anonymous": false
    },
    {
      "type": "event",
      "name": "Registered",
      "inputs": [
        {
          "name": "member",
          "type": "address",
          "indexed": true,
          "internalType": "address"
        },
        {
          "name": "memberIndex",
          "type": "uint256",
          "indexed": true,
          "internalType": "uint256"
        }
      ],
      "anonymous": false
    },
    {
      "type": "event",
      "name": "Reveal",
      "inputs": [
        {
          "name": "pkx",
          "type": "uint256",
          "indexed": true,
          "internalType": "uint256"
        },
        {
          "name": "pky",
          "type": "uint256",
          "indexed": true,
          "internalType": "uint256"
        },
        {
          "name": "member",
          "type": "address",
          "indexed": false,
          "internalType": "address"
        }
      ],
      "anonymous": false
    },
    {
      "type": "event",
      "name": "UpdateState",
      "inputs": [
        {
          "name": "stage",
          "type": "uint8",
          "indexed": false,
          "internalType": "enum IDKG.Stage"
        }
      ],
      "anonymous": false
    },
    {
      "type": "error",
      "name": "AlreadyCommitted",
      "inputs": [
        {
          "name": "sender",
          "type": "address",
          "internalType": "address"
        }
      ]
    },
    {
      "type": "error",
      "name": "AlreadyContributed",
      "inputs": [
        {
          "name": "sender",
          "type": "address",
          "internalType": "address"
        }
      ]
    },
    {
      "type": "error",
      "name": "AlreadyRegistered",
      "inputs": [
        {
          "name": "sender",
          "type": "address",
          "internalType": "address"
        }
      ]
    },
    {
      "type": "error",
      "name": "InvalidProof",
      "inputs": []
    },
    {
      "type": "error",
      "name": "NotInCommittingStage",
      "inputs": []
    },
    {
      "type": "error",
      "name": "NotInContributingStage",
      "inputs": []
    },
    {
      "type": "error",
      "name": "NotInReadyStage",
      "inputs": []
    },
    {
      "type": "error",
      "name": "NotInRegisterStage",
      "inputs": []
    },
    {
      "type": "error",
      "name": "NotOnCurve",
      "inputs": []
    },
    {
      "type": "error",
      "name": "UnauthorizedAddress",
      "inputs": [
        {
          "name": "sender",
          "type": "address",
          "internalType": "address"
        }
      ]
    },
    {
      "type": "error",
      "name": "UnexpectedArrayLength",
      "inputs": []
    }
  ],
  "bytecode": {
    "object": "0x60a06040523480156200001157600080fd5b5060405162001e3b38038062001e3b833981016040819052620000349162000355565b33608052815160009081556020830151600155604080840151600280546001600160a01b0319166001600160a01b03909216919091179055805180820190915290819081526000602090910152805160038054909190829060ff191660018383811115620000a657620000a662000454565b02179055506020918201516001918201556040805180820190915260008082529083018290526005819055600691909155825191840151909110620000f0578260200151620000f3565b81515b905060005b8181101562000137576200012e8382815181106200011a576200011a6200046a565b60200260200101516200014160201b60201c565b600101620000f8565b50505050620004f7565b60805133906001600160a01b031681146200017f576040516311fd7c5560e31b81526001600160a01b03821660048201526024015b60405180910390fd5b60006003805460ff16908111156200019b576200019b62000454565b14620001ba57604051635fc09a7560e01b815260040160405180910390fd5b6001600160a01b03821660009081526007602052604090205415620001fe576040516345ed80e960e01b81526001600160a01b038316600482015260240162000176565b6004546200020e90600162000496565b6001600160a01b03831660009081526007602052604090205562000233600162000237565b5050565b600454806200024681620004b2565b9150506000600101548103620002be5760006004556003805483919060ff1916600183838111156200027c576200027c62000454565b02179055507f1501476ad057e333abb9bb708545e6cd1af64d0650fb8f2900f67e2fa431c0b782604051620002b29190620004ce565b60405180910390a15050565b60045550565b634e487b7160e01b600052604160045260246000fd5b604051606081016001600160401b0381118282101715620002ff57620002ff620002c4565b60405290565b604051601f8201601f191681016001600160401b0381118282101715620003305762000330620002c4565b604052919050565b80516001600160a01b03811681146200035057600080fd5b919050565b60008082840360808112156200036a57600080fd5b60608112156200037957600080fd5b5062000384620002da565b8351815260208085015181830152620003a06040860162000338565b604083015260608501519193506001600160401b0380831115620003c357600080fd5b828601925086601f840112620003d857600080fd5b825181811115620003ed57620003ed620002c4565b8060051b91506200040083830162000305565b81815291840183019183810190898411156200041b57600080fd5b948401945b838610156200044457620004348662000338565b8252948401949084019062000420565b8096505050505050509250929050565b634e487b7160e01b600052602160045260246000fd5b634e487b7160e01b600052603260045260246000fd5b634e487b7160e01b600052601160045260246000fd5b80820180821115620004ac57620004ac62000480565b92915050565b600060018201620004c757620004c762000480565b5060010190565b6020810160048310620004f157634e487b7160e01b600052602160045260246000fd5b91905290565b6080516119216200051a600039600081816101fc015261029401526119216000f3fe608060405234801561001057600080fd5b50600436106100b45760003560e01c806379502c551161007157806379502c55146101b85780638da5cb5b146101f7578063b50fa3d314610236578063c19d93fb14610249578063c5a0495814610268578063ee5cf1531461027b57600080fd5b806328ec6d3c146100b957806330ac716d146101055780633d77cf8b1461013e5780634420e486146101705780635747a74d14610185578063601e16e9146101a5575b600080fd5b6100eb6100c7366004611521565b60086020908152600092835260408084209091529082529020805460019091015482565b604080519283526020830191909152015b60405180910390f35b610130610113366004611521565b600960209081526000928352604080842090915290825290205481565b6040519081526020016100fc565b6100eb61014c366004611521565b600a6020908152600092835260408084209091529082529020805460019091015482565b61018361017e366004611543565b610289565b005b610130610193366004611543565b60076020526000908152604090205481565b6101836101b3366004611573565b610391565b6000546001546002546101d39291906001600160a01b031683565b6040805193845260208401929092526001600160a01b0316908201526060016100fc565b61021e7f000000000000000000000000000000000000000000000000000000000000000081565b6040516001600160a01b0390911681526020016100fc565b6101836102443660046115ae565b610954565b60035460045461025a9160ff169082565b6040516100fc929190611621565b61018361027636600461163c565b610f78565b6005546006546100eb919082565b336001600160a01b037f00000000000000000000000000000000000000000000000000000000000000001681146102e3576040516311fd7c5560e31b81526001600160a01b03821660048201526024015b60405180910390fd5b60006003805460ff16908111156102fc576102fc6115e9565b1461031a57604051635fc09a7560e01b815260040160405180910390fd5b6001600160a01b0382166000908152600760205260409020541561035c576040516345ed80e960e01b81526001600160a01b03831660048201526024016102da565b60045461036a9060016116c7565b6001600160a01b03831660009081526007602052604090205561038d60016111f5565b5050565b33600081815260076020526040812054908190036103cd576040516311fd7c5560e31b81526001600160a01b03831660048201526024016102da565b6003805460ff16818111156103e4576103e46115e9565b146104025760405163e7c9ee6f60e01b815260040160405180910390fd5b33600090815260076020526040808220548254600154600280549451633757a45160e11b815260048101919091529294919390926001600160a01b0390911691908290636eaf48a290602401602060405180830381865afa15801561046b573d6000803e3d6000fd5b505050506040513d601f19601f8201168201806040525081019061048f91906116da565b60ff1667ffffffffffffffff8111156104aa576104aa6116fd565b6040519080825280602002602001820160405280156104d3578160200160208202803683370190505b5090506000805b8581101561057a57600087815260086020908152604080832084845290915290205483610508836002611713565b815181106105185761051861172a565b602090810291909101810191909152600088815260088252604080822084835290925220600101548361054c836002611713565b6105579060016116c7565b815181106105675761056761172a565b60209081029190910101526001016104da565b50610586856002611713565b61059090826116c7565b905060015b848111610683578087146106715760008782116105bc576105b7600183611740565b6105c7565b6105c7600283611740565b6000838152600860209081526040808320838052909152902054909150846105f0836002611713565b6105fa90866116c7565b8151811061060a5761060a61172a565b602090810291909101810191909152600083815260088252604080822082805290925220600101548461063e836002611713565b61064890866116c7565b6106539060016116c7565b815181106106635761066361172a565b602002602001018181525050505b8061067b81611753565b915050610595565b5061068f600185611740565b61069a906002611713565b6106a490826116c7565b905060015b848111610733578087146107215760008782116106d0576106cb600183611740565b6106db565b6106db600283611740565b60008381526009602090815260408083208c84529091529020549091508461070383866116c7565b815181106107135761071361172a565b602002602001018181525050505b8061072b81611753565b9150506106a9565b5061073f600185611740565b61074990826116c7565b905088600060200201358282815181106107655761076561172a565b60209081029190910101528860016020020135826107848360016116c7565b815181106107945761079461172a565b60209081029190910101526040890135826107b08360026116c7565b815181106107c0576107c061172a565b60209081029190910101526060890135826107dc8360036116c7565b815181106107ec576107ec61172a565b602090810291909101015285826108048360046116c7565b815181106108145761081461172a565b60209081029190910101526001600160a01b03831663b4d49986600261083d60808d018d61176c565b866040518563ffffffff1660e01b815260040161085d94939291906117ba565b602060405180830381865afa15801561087a573d6000803e3d6000fd5b505050506040513d601f19601f8201168201806040525081019061089e919061183b565b6108bb576040516309bde33960e01b815260040160405180910390fd5b60005b600281101561090d576040805180820182528b820135815260608c013560208083019182528d356000908152600a82528481208c825290915292909220905181559051600191820155016108be565b506040513381526020808b0135918b35917f522251e32864451f1c4db7779f8041dad85a7486c3a7435db8775b8cde96aba5910160405180910390a3505050505050505050565b3360008181526007602052604081205490819003610990576040516311fd7c5560e31b81526001600160a01b03831660048201526024016102da565b60026003805460ff16908111156109a9576109a96115e9565b146109c7576040516327154ce560e21b815260040160405180910390fd5b3360009081526007602052604081205490546001805460025490916001600160a01b03909116906109f89083611740565b610a02888061185d565b905014610a2257604051631a95983360e11b815260040160405180910390fd5b600084815260096020908152604080832090915290205415610a5957604051637fcb3fdd60e01b81523360048201526024016102da565b604051633757a45160e11b8152600160048201526000906001600160a01b03831690636eaf48a290602401602060405180830381865afa158015610aa1573d6000803e3d6000fd5b505050506040513d601f19601f82011682018060405250810190610ac591906116da565b60ff1667ffffffffffffffff811115610ae057610ae06116fd565b604051908082528060200260200182016040528015610b09578160200160208202803683370190505b5090506000805b85811015610bb057600087815260086020908152604080832084845290915290205483610b3e836002611713565b81518110610b4e57610b4e61172a565b6020908102919091018101919091526000888152600882526040808220848352909252206001015483610b82836002611713565b610b8d9060016116c7565b81518110610b9d57610b9d61172a565b6020908102919091010152600101610b10565b50610bbc856002611713565b610bc690826116c7565b905060015b848111610cb957808714610ca7576000878211610bf257610bed600183611740565b610bfd565b610bfd600283611740565b600083815260086020908152604080832083805290915290205490915084610c26836002611713565b610c3090866116c7565b81518110610c4057610c4061172a565b6020908102919091018101919091526000838152600882526040808220828052909252206001015484610c74836002611713565b610c7e90866116c7565b610c899060016116c7565b81518110610c9957610c9961172a565b602002602001018181525050505b80610cb181611753565b915050610bcb565b50610cc5600185611740565b610cd0906002611713565b610cda90826116c7565b905060015b848111610d4f57808714610d3d576000878211610d0657610d01600183611740565b610d11565b610d11600283611740565b90508184610d1f83866116c7565b81518110610d2f57610d2f61172a565b602002602001018181525050505b80610d4781611753565b915050610cdf565b50610d5b600185611740565b610d6590826116c7565b905060005b610d75600186611740565b811015610dce57610d868a8061185d565b82818110610d9657610d9661172a565b90506020020135838380610da990611753565b945081518110610dbb57610dbb61172a565b6020908102919091010152600101610d6a565b506001600160a01b03831663b4d499866001610ded60208d018d61176c565b866040518563ffffffff1660e01b8152600401610e0d94939291906117ba565b602060405180830381865afa158015610e2a573d6000803e3d6000fd5b505050506040513d601f19601f82011682018060405250810190610e4e919061183b565b610e6b576040516309bde33960e01b815260040160405180910390fd5b60015b848111610f3557868103610ebd57600087815260096020908152604080832084845290915290207f060c89ce5c263405370a08b6d0302b0bab3eedb83920ee0a677297dc392126f19055610f23565b6000878211610ed657610ed1600183611740565b610ee1565b610ee1600283611740565b9050610eed8b8061185d565b82818110610efd57610efd61172a565b60008b815260096020908152604080832088845282529091209102929092013590915550505b80610f2d81611753565b915050610e6e565b50610f4060036111f5565b604051869033907f906faaf913a60f38b5e8f2d6f5b163239bac2d994fa1a5d21751a51587a9405790600090a3505050505050505050565b3360008181526007602052604081205490819003610fb4576040516311fd7c5560e31b81526001600160a01b03831660048201526024016102da565b6000548314610fd657604051631a95983360e11b815260040160405180910390fd5b60016003805460ff1690811115610fef57610fef6115e9565b1461100d5760405163d491a09d60e01b815260040160405180910390fd5b336000908152600760209081526040808320548084526008835281842084805290925282205490919015801561105d57506000828152600860209081526040808320838052909152902060010154155b90508061107f576040516364dbd98760e01b81523360048201526024016102da565b60005b6000548110156110f1576110cc8787838181106110a1576110a161172a565b905060400201600001358888848181106110bd576110bd61172a565b9050604002016020013561127a565b6110e9576040516361586bdd60e01b815260040160405180910390fd5b600101611082565b5060005b600054811015611167578686828181106111115761111161172a565b9050604002016000013587878381811061112d5761112d61172a565b60008781526008602090815260408083208884528252918290209290910293909301909201356001808401919091559290915550016110f5565b506005546006546111b0919088886000816111845761118461172a565b90506040020160000135898960008181106111a1576111a161172a565b90506040020160200135611326565b6006556005556111c060026111f5565b604051829033907f5e1dd8c4451717d5ca4ffbefdada35e22e0871220b9ed9dd03a351f0938c5ed790600090a3505050505050565b6004548061120281611753565b91505060006001015481036112745760006004556003805483919060ff191660018383811115611234576112346115e9565b02179055507f1501476ad057e333abb9bb708545e6cd1af64d0650fb8f2900f67e2fa431c0b78260405161126891906118a7565b60405180910390a15050565b60045550565b6000806000805160206118cc833981519152848509905060006000805160206118cc833981519152848509905060006000805160206118cc833981519152826000805160206118cc83398151915285620292fc0908905060006000805160206118cc83398151915280846000805160206118cc83398151915287620292f80909600108905061131882826000805160206118cc833981519152611474565b159450505050505b92915050565b60008085158015611335575084155b1561134457508290508161146b565b83158015611350575084155b1561135f57508490508361146b565b60006000805160206118cc833981519152858809905060006000805160206118cc833981519152858809905060006000805160206118cc83398151915280838509620292f809905060006000805160206118cc83398151915280898b096000805160206118cc833981519152898d090890506000611400846000805160206118cc83398151915287620292fc096000805160206118cc833981519152611474565b90506000805160206118cc83398151915261142c6000805160206118cc833981519152856001086114af565b830996506000805160206118cc83398151915261146161145c6001866000805160206118cc833981519152611474565b6114af565b8209955050505050505b94509492505050565b60008383811161148b5761148883826116c7565b90505b8280611499576114996118b5565b60006114a58684611740565b0895945050505050565b6000611320826114ce60026000805160206118cc833981519152611740565b6000805160206118cc833981519152600060405160208152602080820152602060408201528460608201528360808201528260a082015260208160c08360055afa8080156100b457505051949350505050565b6000806040838503121561153457600080fd5b50508035926020909101359150565b60006020828403121561155557600080fd5b81356001600160a01b038116811461156c57600080fd5b9392505050565b60006020828403121561158557600080fd5b813567ffffffffffffffff81111561159c57600080fd5b820160a0818503121561156c57600080fd5b6000602082840312156115c057600080fd5b813567ffffffffffffffff8111156115d757600080fd5b82016040818503121561156c57600080fd5b634e487b7160e01b600052602160045260246000fd5b6004811061161d57634e487b7160e01b600052602160045260246000fd5b9052565b6040810161162f82856115ff565b8260208301529392505050565b6000806020838503121561164f57600080fd5b823567ffffffffffffffff8082111561166757600080fd5b818501915085601f83011261167b57600080fd5b81358181111561168a57600080fd5b8660208260061b850101111561169f57600080fd5b60209290920196919550909350505050565b634e487b7160e01b600052601160045260246000fd5b80820180821115611320576113206116b1565b6000602082840312156116ec57600080fd5b815160ff8116811461156c57600080fd5b634e487b7160e01b600052604160045260246000fd5b8082028115828204841417611320576113206116b1565b634e487b7160e01b600052603260045260246000fd5b81810381811115611320576113206116b1565b600060018201611765576117656116b1565b5060010190565b6000808335601e1984360301811261178357600080fd5b83018035915067ffffffffffffffff82111561179e57600080fd5b6020019150368190038213156117b357600080fd5b9250929050565b60ff85168152600060206060602084015284606084015284866080850137600060808685018101829052601f19601f880116850185810382016040870152865191810182905260208701929160a0909101905b8083101561182d578351825292840192600192909201919084019061180d565b509998505050505050505050565b60006020828403121561184d57600080fd5b8151801515811461156c57600080fd5b6000808335601e1984360301811261187457600080fd5b83018035915067ffffffffffffffff82111561188f57600080fd5b6020019150600581901b36038213156117b357600080fd5b6020810161132082846115ff565b634e487b7160e01b600052601260045260246000fdfe30644e72e131a029b85045b68181585d2833e84879b9709143e1f593f0000001a2646970667358221220bcc578ad1df39dcef55248818135e4b34ffaa79e4c7dbba9cba89690789b147664736f6c63430008170033",
    "linkReferences": {}
  },
  "methodIdentifiers": {
    "Commitment(uint256,uint256)": "28ec6d3c",
    "CommitteeIndices(address)": "5747a74d",
    "Disclosure(uint256,uint256)": "3d77cf8b",
    "Encrypted(uint256,uint256)": "30ac716d",
    "PK_COMMITTEE()": "ee5cf153",
    "config()": "79502c55",
    "owner()": "8da5cb5b",
    "register(address)": "4420e486",
    "reveal((uint256[2],uint256[2],bytes))": "601e16e9",
    "round1((uint256,uint256)[])": "c5a04958",
    "round2((uint256[],bytes))": "b50fa3d3",
    "state()": "c19d93fb"
  },
  "id": 29
}