{
  "abi": [
    {
      "type": "constructor",
      "inputs": [
        {
          "name": "config",
          "type": "tuple",
          "internalType": "struct IMixer.MixerConfig",
          "components": [
            {
              "name": "verifier",
              "type": "address",
              "internalType": "address"
            },
            {
              "name": "committee",
              "type": "address",
              "internalType": "address"
            },
            {
              "name": "hash2",
              "type": "address",
              "internalType": "address"
            },
            {
              "name": "hash4",
              "type": "address",
              "internalType": "address"
            },
            {
              "name": "merkleTreeHeight",
              "type": "uint32",
              "internalType": "uint32"
            }
          ]
        }
      ],
      "stateMutability": "nonpayable"
    },
    {
      "type": "function",
      "name": "FIELD_SIZE",
      "inputs": [],
      "outputs": [
        {
          "name": "",
          "type": "uint256",
          "internalType": "uint256"
        }
      ],
      "stateMutability": "view"
    },
    {
      "type": "function",
      "name": "ROOT_HISTORY_SIZE",
      "inputs": [],
      "outputs": [
        {
          "name": "",
          "type": "uint32",
          "internalType": "uint32"
        }
      ],
      "stateMutability": "view"
    },
    {
      "type": "function",
      "name": "ZERO_VALUE",
      "inputs": [],
      "outputs": [
        {
          "name": "",
          "type": "uint256",
          "internalType": "uint256"
        }
      ],
      "stateMutability": "view"
    },
    {
      "type": "function",
      "name": "commitments",
      "inputs": [
        {
          "name": "",
          "type": "uint256",
          "internalType": "uint256"
        }
      ],
      "outputs": [
        {
          "name": "",
          "type": "bool",
          "internalType": "bool"
        }
      ],
      "stateMutability": "view"
    },
    {
      "type": "function",
      "name": "config",
      "inputs": [],
      "outputs": [
        {
          "name": "verifier",
          "type": "address",
          "internalType": "address"
        },
        {
          "name": "committee",
          "type": "address",
          "internalType": "address"
        },
        {
          "name": "hash2",
          "type": "address",
          "internalType": "address"
        },
        {
          "name": "hash4",
          "type": "address",
          "internalType": "address"
        },
        {
          "name": "merkleTreeHeight",
          "type": "uint32",
          "internalType": "uint32"
        }
      ],
      "stateMutability": "view"
    },
    {
      "type": "function",
      "name": "currentRootIndex",
      "inputs": [],
      "outputs": [
        {
          "name": "",
          "type": "uint32",
          "internalType": "uint32"
        }
      ],
      "stateMutability": "view"
    },
    {
      "type": "function",
      "name": "deposit",
      "inputs": [
        {
          "name": "depositParams",
          "type": "tuple",
          "internalType": "struct IMixer.DepositParams",
          "components": [
            {
              "name": "commitment",
              "type": "uint256",
              "internalType": "uint256"
            },
            {
              "name": "pk",
              "type": "tuple",
              "internalType": "struct IMixer.BabyJubPoint",
              "components": [
                {
                  "name": "x",
                  "type": "uint256",
                  "internalType": "uint256"
                },
                {
                  "name": "y",
                  "type": "uint256",
                  "internalType": "uint256"
                }
              ]
            },
            {
              "name": "amount",
              "type": "uint256",
              "internalType": "uint256"
            }
          ]
        }
      ],
      "outputs": [],
      "stateMutability": "payable"
    },
    {
      "type": "function",
      "name": "filledSubtrees",
      "inputs": [
        {
          "name": "",
          "type": "uint256",
          "internalType": "uint256"
        }
      ],
      "outputs": [
        {
          "name": "",
          "type": "uint256",
          "internalType": "uint256"
        }
      ],
      "stateMutability": "view"
    },
    {
      "type": "function",
      "name": "getLastRoot",
      "inputs": [],
      "outputs": [
        {
          "name": "",
          "type": "uint256",
          "internalType": "uint256"
        }
      ],
      "stateMutability": "view"
    },
    {
      "type": "function",
      "name": "hashLeftRight",
      "inputs": [
        {
          "name": "_hasher",
          "type": "address",
          "internalType": "contract IHasher"
        },
        {
          "name": "_left",
          "type": "uint256",
          "internalType": "uint256"
        },
        {
          "name": "_right",
          "type": "uint256",
          "internalType": "uint256"
        }
      ],
      "outputs": [
        {
          "name": "",
          "type": "uint256",
          "internalType": "uint256"
        }
      ],
      "stateMutability": "pure"
    },
    {
      "type": "function",
      "name": "hasher",
      "inputs": [],
      "outputs": [
        {
          "name": "",
          "type": "address",
          "internalType": "contract IHasher"
        }
      ],
      "stateMutability": "view"
    },
    {
      "type": "function",
      "name": "isKnownRoot",
      "inputs": [
        {
          "name": "_root",
          "type": "uint256",
          "internalType": "uint256"
        }
      ],
      "outputs": [
        {
          "name": "",
          "type": "bool",
          "internalType": "bool"
        }
      ],
      "stateMutability": "view"
    },
    {
      "type": "function",
      "name": "isSpent",
      "inputs": [
        {
          "name": "_nullifierHash",
          "type": "uint256",
          "internalType": "uint256"
        }
      ],
      "outputs": [
        {
          "name": "",
          "type": "bool",
          "internalType": "bool"
        }
      ],
      "stateMutability": "view"
    },
    {
      "type": "function",
      "name": "isSpentArray",
      "inputs": [
        {
          "name": "_nullifierHashes",
          "type": "uint256[]",
          "internalType": "uint256[]"
        }
      ],
      "outputs": [
        {
          "name": "spent",
          "type": "bool[]",
          "internalType": "bool[]"
        }
      ],
      "stateMutability": "view"
    },
    {
      "type": "function",
      "name": "leads",
      "inputs": [
        {
          "name": "",
          "type": "uint256",
          "internalType": "uint256"
        }
      ],
      "outputs": [
        {
          "name": "",
          "type": "address",
          "internalType": "address"
        }
      ],
      "stateMutability": "view"
    },
    {
      "type": "function",
      "name": "levels",
      "inputs": [],
      "outputs": [
        {
          "name": "",
          "type": "uint32",
          "internalType": "uint32"
        }
      ],
      "stateMutability": "view"
    },
    {
      "type": "function",
      "name": "nextIndex",
      "inputs": [],
      "outputs": [
        {
          "name": "",
          "type": "uint32",
          "internalType": "uint32"
        }
      ],
      "stateMutability": "view"
    },
    {
      "type": "function",
      "name": "nullifierHashes",
      "inputs": [
        {
          "name": "",
          "type": "uint256",
          "internalType": "uint256"
        }
      ],
      "outputs": [
        {
          "name": "",
          "type": "bool",
          "internalType": "bool"
        }
      ],
      "stateMutability": "view"
    },
    {
      "type": "function",
      "name": "roots",
      "inputs": [
        {
          "name": "",
          "type": "uint256",
          "internalType": "uint256"
        }
      ],
      "outputs": [
        {
          "name": "",
          "type": "uint256",
          "internalType": "uint256"
        }
      ],
      "stateMutability": "view"
    },
    {
      "type": "function",
      "name": "withdraw",
      "inputs": [
        {
          "name": "withdrawParams",
          "type": "tuple",
          "internalType": "struct IMixer.WithdrawParams",
          "components": [
            {
              "name": "proof",
              "type": "bytes",
              "internalType": "bytes"
            },
            {
              "name": "root",
              "type": "uint256",
              "internalType": "uint256"
            },
            {
              "name": "nullifierHash",
              "type": "uint256",
              "internalType": "uint256"
            },
            {
              "name": "lead",
              "type": "uint256",
              "internalType": "uint256"
            },
            {
              "name": "amount",
              "type": "uint256",
              "internalType": "uint256"
            },
            {
              "name": "recipient",
              "type": "address",
              "internalType": "address payable"
            },
            {
              "name": "relayer",
              "type": "address",
              "internalType": "address payable"
            },
            {
              "name": "fee",
              "type": "uint256",
              "internalType": "uint256"
            }
          ]
        }
      ],
      "outputs": [],
      "stateMutability": "payable"
    },
    {
      "type": "function",
      "name": "zeros",
      "inputs": [
        {
          "name": "i",
          "type": "uint256",
          "internalType": "uint256"
        }
      ],
      "outputs": [
        {
          "name": "",
          "type": "uint256",
          "internalType": "uint256"
        }
      ],
      "stateMutability": "pure"
    },
    {
      "type": "event",
      "name": "Deposit",
      "inputs": [
        {
          "name": "commitment",
          "type": "uint256",
          "indexed": true,
          "internalType": "uint256"
        },
        {
          "name": "pkx",
          "type": "uint256",
          "indexed": false,
          "internalType": "uint256"
        },
        {
          "name": "pky",
          "type": "uint256",
          "indexed": false,
          "internalType": "uint256"
        },
        {
          "name": "amount",
          "type": "uint256",
          "indexed": false,
          "internalType": "uint256"
        },
        {
          "name": "leafIndex",
          "type": "uint32",
          "indexed": false,
          "internalType": "uint32"
        }
      ],
      "anonymous": false
    },
    {
      "type": "event",
      "name": "Withdrawal",
      "inputs": [
        {
          "name": "to",
          "type": "address",
          "indexed": false,
          "internalType": "address"
        },
        {
          "name": "nullifierHash",
          "type": "uint256",
          "indexed": false,
          "internalType": "uint256"
        },
        {
          "name": "lead",
          "type": "uint256",
          "indexed": false,
          "internalType": "uint256"
        },
        {
          "name": "amount",
          "type": "uint256",
          "indexed": false,
          "internalType": "uint256"
        },
        {
          "name": "relayer",
          "type": "address",
          "indexed": true,
          "internalType": "address"
        }
      ],
      "anonymous": false
    },
    {
      "type": "error",
      "name": "ReentrancyGuardReentrantCall",
      "inputs": []
    }
  ],
  "bytecode": {
    "object": "0x60a0604052600380546001600160401b03191690553480156200002157600080fd5b5060405162002836380380620028368339810160408190526200004491620008bc565b808060800151816040015160008263ffffffff1611620000b75760405162461bcd60e51b815260206004820152602360248201527f5f6c6576656c732073686f756c642062652067726561746572207468616e207a60448201526265726f60e81b60648201526084015b60405180910390fd5b60208263ffffffff16106200010f5760405162461bcd60e51b815260206004820152601e60248201527f5f6c6576656c732073686f756c64206265206c657373207468616e20333200006044820152606401620000ae565b6000805463ffffffff191663ffffffff84161781556001600160a01b0382166080525b8263ffffffff168163ffffffff1610156200017b576200015863ffffffff821662000254565b63ffffffff82166000908152600160208190526040909120919091550162000132565b50620001996200018d6001846200096d565b63ffffffff1662000254565b60008052600260209081527fac33ff75c19e70fe83507db0d683fd3465c996598dc972688b7ace676c89077b9190915560016004558351600580546001600160a01b039283166001600160a01b0319918216179091559185015160068054918316918416919091179055604085015160078054918316919093161790915560608401516008805460809096015163ffffffff16600160a01b026001600160c01b031990961691909216179390931790925550620009a0915050565b6000816000036200028657507f06ba262ceb5156c0fef18c1a9ed6f2d7063478e249a84a2e447efe50b59ac109919050565b81600103620002b657507f06b339326bb7c8508f52066ec539dafcca86bb1bb136cbb325b1f6030be7295a919050565b81600203620002e657507f27db25ed325ef30896bf4de9d8527b19f59f643ccfed116eebd2565efb879740919050565b816003036200031657507f2934219127fc379bd62ce7d8c54940c7ba740712eb136f2418f3fedffe58d2b6919050565b816004036200034657507f1820072ad4384968661647c8d3c7c142d3fcb3fc17350395ffd8f2d513ef4f84919050565b816005036200037657507f04e57b5efb535e6635534268170e235e026c763c0d7a240a4afcabec07938c9a919050565b81600603620003a657507f0b0c2c03715b11acee523bb87b7fc1007ef45d7418af7d1ef17261bfb7010d36919050565b81600703620003d657507f018395d2191f1884565d4c579588f72ee6bcd5bfa285efc8dbe2dbad1bdecfb4919050565b816008036200040657507f23b91ee05381772ee46bc92edbd95e4b07af50897afcb916a219267b8f8e549c919050565b816009036200043657507f09ddc2ae397ca6446af28ad3b799e1fa2d8bac02f20fbf7c9ce14c61a58c01d3919050565b81600a036200046657507f07ac9ae9b78d102c93aae619b45c7b86d96f64d43ebb5b23ac474b0a281075f8919050565b81600b036200049657507f0944a068515f5485ba46e3cc085663b111989f2f362c0d75a72254f5e2b9c451919050565b81600c03620004c657507f0e62d046fca25110e1157d560d07f13a07f6ea093b9775b6b1f594e6ef4de8b7919050565b81600d03620004f657507f05f17793239a29e435f4e6a2677047863eba182a33b06b080e122b4da6dca6a3919050565b81600e036200052657507f0226ef021e3ffe3357aef0ce1dd1983c673ee9cf289e3bf0bf253fa1ff18624e919050565b81600f036200055657507f1024072171b69ef95bfa78d85d1817761eabfc544e07379a84d51a14594cb6bc919050565b816010036200058657507f09859dfb9b13e61edc3d630f622a51205f067e09201378550a2c3176a9b3846b919050565b81601103620005b657507f17ac4017d10b78b38202e00b9e935d09f4ddf5638090593a8b1e3a8c44c404fd919050565b81601203620005e657507f012dde7ff841fee95843932001df3aaa52288c42a9f6eb139c16197c13ad35a7919050565b816013036200061657507f1db5d8dd9d3f34532e33ba03430917d88c42bbbdd3d1c82e93fc4858e692e7fb919050565b816014036200064657507f0ea5162940c88e9d654006875e2c847df96ebe6b450dd7d47535dd0689b7e0a6919050565b816015036200067657507f10c34a04aaf0a2dfd1f0c72f16a160f8e7d40c147ff38a2b5034b42af04a8c1a919050565b81601603620006a657507f253d66832cc4753518398b848447832a439911fe19574b860d7826f4ee8eedc3919050565b81601703620006d657507f27d6feb9deb5b09a1aa5f0eb5cf89cc91f984758fccc9e536d1b118ca308fdb8919050565b816018036200070657507f1f6c927e8d287b9c638cee8e0c11e8674e916962d66f34180223dce3e74a6592919050565b816019036200073657507f2a245c0053c0f89444e150a015ad8e4836cbeca12fae19d96780c40aaadd5a29919050565b81601a036200076657507f10c08dd62903b1e0546cb83c9cbe753bbaa31e54816045f45604403c9f63045b919050565b81601b036200079657507f24bbbf0e2e56df6949b53a2bff9118e2c2afb2b6b4fbd4fd26fba8af0b1a269e919050565b81601c03620007c657507f1986744abe47ed3a8725436bb7b1e920ca8f7fad9fe4a29327db9938231597b2919050565b81601d03620007f657507f24d2f1056da863f53181ea9fc288ed790636819a0a59acffa5faa30d4bbdec76919050565b81601e036200082657507f23acbb4d46d8357f5342d35fa374b846f9d88dcb49bff3bb199340c93ec85aa3919050565b81601f036200085657507f248567308c1391b7d211a54ae2e80e3e0b026978c04c1bdd36e1c6ddc6d795a4919050565b60405162461bcd60e51b815260206004820152601360248201527f496e646578206f7574206f6620626f756e6473000000000000000000000000006044820152606401620000ae565b919050565b80516001600160a01b03811681146200089f57600080fd5b600060a08284031215620008cf57600080fd5b60405160a081016001600160401b03811182821017156200090057634e487b7160e01b600052604160045260246000fd5b6040526200090e83620008a4565b81526200091e60208401620008a4565b60208201526200093160408401620008a4565b60408201526200094460608401620008a4565b6060820152608083015163ffffffff811681146200096157600080fd5b60808201529392505050565b63ffffffff8281168282160390808211156200099957634e487b7160e01b600052601160045260246000fd5b5092915050565b608051611e73620009c36000396000818161049d01526116440152611e736000f3fe60806040526004361061012a5760003560e01c8063a6892679116100ab578063e82955881161006f578063e82955881461040a578063ea65ba491461042a578063ec73295914610457578063ed33639f1461048b578063f178e47c146104bf578063fc7e9c6f146104ec57600080fd5b8063a68926791461033d578063ba70f7571461038b578063c2b40ae4146103b5578063c49e06b2146103e2578063cd87a3b4146103f557600080fd5b80635a129efe116100f25780635a129efe1461022d578063713cd83e1461025d57806379502c551461027d57806390eeb02b14610300578063a6232a931461031d57600080fd5b80631f79a1e91461012f578063414a37ba1461017457806348379bda146101b657806349ce8997146101cb5780634ecf518b146101fb575b600080fd5b34801561013b57600080fd5b5061015f61014a366004611918565b60096020526000908152604090205460ff1681565b60405190151581526020015b60405180910390f35b34801561018057600080fd5b506101a87f30644e72e131a029b85045b68181585d2833e84879b9709143e1f593f000000181565b60405190815260200161016b565b6101c96101c4366004611931565b610511565b005b3480156101d757600080fd5b5061015f6101e6366004611918565b600b6020526000908152604090205460ff1681565b34801561020757600080fd5b506000546102189063ffffffff1681565b60405163ffffffff909116815260200161016b565b34801561023957600080fd5b5061015f610248366004611918565b60009081526009602052604090205460ff1690565b34801561026957600080fd5b506101a861027836600461195e565b61075c565b34801561028957600080fd5b506005546006546007546008546102c0936001600160a01b039081169381169281169190811690600160a01b900463ffffffff1685565b604080516001600160a01b039687168152948616602086015292851692840192909252909216606082015263ffffffff909116608082015260a00161016b565b34801561030c57600080fd5b506003546102189063ffffffff1681565b34801561032957600080fd5b5061015f610338366004611918565b61091c565b34801561034957600080fd5b50610373610358366004611918565b600a602052600090815260409020546001600160a01b031681565b6040516001600160a01b03909116815260200161016b565b34801561039757600080fd5b5060035463ffffffff166000908152600260205260409020546101a8565b3480156103c157600080fd5b506101a86103d0366004611918565b60026020526000908152604090205481565b6101c96103f0366004611993565b61099b565b34801561040157600080fd5b50610218601e81565b34801561041657600080fd5b506101a8610425366004611918565b610db5565b34801561043657600080fd5b5061044a6104453660046119d6565b6113d5565b60405161016b9190611a4b565b34801561046357600080fd5b506101a87f06ba262ceb5156c0fef18c1a9ed6f2d7063478e249a84a2e447efe50b59ac10981565b34801561049757600080fd5b506103737f000000000000000000000000000000000000000000000000000000000000000081565b3480156104cb57600080fd5b506101a86104da366004611918565b60016020526000908152604090205481565b3480156104f857600080fd5b5060035461021890640100000000900463ffffffff1681565b610519611491565b610522816114bb565b60408051600480825260a082019092526000916020820160808036833701905050905081600001358160008151811061055d5761055d611aa7565b60200260200101818152505081602001600001358160018151811061058457610584611aa7565b6020026020010181815250508160200160200135816002815181106105ab576105ab611aa7565b6020026020010181815250508160600135816003815181106105cf576105cf611aa7565b602090810291909101015260085460405163311083ed60e21b81526000916001600160a01b03169063c4420fb49061060b908590600401611af9565b602060405180830381865afa158015610628573d6000803e3d6000fd5b505050506040513d601f19601f8201168201806040525081019061064c9190611b0c565b6000818152600b602052604090205490915060ff16156106bd5760405162461bcd60e51b815260206004820152602160248201527f54686520636f6d6d69746d656e7420686173206265656e207375626d697474656044820152601960fa1b60648201526084015b60405180910390fd5b60006106c882611526565b6000838152600b6020908152604091829020805460ff19166001179055815192935084927f14d72f3f943e9f1586fc652881ce361e09b0d4279a38ac887a79e89df39e6940926107449289013591908901359060608a01359087909384526020840192909252604083015263ffffffff16606082015260800190565b60405180910390a25050506107596001600455565b50565b60007f30644e72e131a029b85045b68181585d2833e84879b9709143e1f593f000000183106107cd5760405162461bcd60e51b815260206004820181905260248201527f5f6c6566742073686f756c6420626520696e7369646520746865206669656c6460448201526064016106b4565b7f30644e72e131a029b85045b68181585d2833e84879b9709143e1f593f000000182106108465760405162461bcd60e51b815260206004820152602160248201527f5f72696768742073686f756c6420626520696e7369646520746865206669656c6044820152601960fa1b60648201526084016106b4565b604080516002808252606082018352600092602083019080368337019050509050838160008151811061087b5761087b611aa7565b602002602001018181525050828160018151811061089b5761089b611aa7565b602090810291909101015260405163311083ed60e21b81526001600160a01b0386169063c4420fb4906108d2908490600401611af9565b602060405180830381865afa1580156108ef573d6000803e3d6000fd5b505050506040513d601f19601f820116820180604052508101906109139190611b0c565b95945050505050565b60008160000361092e57506000919050565b60035463ffffffff16805b63ffffffff8116600090815260026020526040902054840361095f575060019392505050565b8063ffffffff166000036109715750601e5b8061097b81611b3b565b9150508163ffffffff168163ffffffff1603610939575060009392505050565b6109a3611491565b60408082013560009081526009602052205460ff1615610a155760405162461bcd60e51b815260206004820152602760248201527f546865207669727475616c206e6f646520686173206265656e20616c726561646044820152661e481cdc195b9d60ca1b60648201526084016106b4565b610a22816020013561091c565b610a6e5760405162461bcd60e51b815260206004820152601c60248201527f43616e6e6f742066696e6420796f7572206d65726b6c6520726f6f740000000060448201526064016106b4565b600554604051633757a45160e11b8152600360048201526000916001600160a01b031690636eaf48a290602401602060405180830381865afa158015610ab8573d6000803e3d6000fd5b505050506040513d601f19601f82011682018060405250810190610adc9190611b5b565b60ff1667ffffffffffffffff811115610af757610af7611a91565b604051908082528060200260200182016040528015610b20578160200160208202803683370190505b509050816020013581600081518110610b3b57610b3b611aa7565b602002602001018181525050816040013581600181518110610b5f57610b5f611aa7565b602002602001018181525050816060013581600281518110610b8357610b83611aa7565b602002602001018181525050816080013581600381518110610ba757610ba7611aa7565b60209081029190910101526006546040805163ee5cf15360e01b815281516001600160a01b039093169263ee5cf153926004808401939192918290030181865afa158015610bf9573d6000803e3d6000fd5b505050506040513d601f19601f82011682018060405250810190610c1d9190611b7e565b82600481518110610c3057610c30611aa7565b6020026020010183600581518110610c4a57610c4a611aa7565b6020908102919091010191909152526005546001600160a01b031663b4d499866003610c768580611ba2565b856040518563ffffffff1660e01b8152600401610c969493929190611bf0565b602060405180830381865afa158015610cb3573d6000803e3d6000fd5b505050506040513d601f19601f82011682018060405250810190610cd79190611c42565b610ce057600080fd5b604080830135600090815260096020908152828220805460ff1916600117905560608501358252600a90522080546001600160a01b03191633179055610d258261170f565b610d3560e0830160c08401611c64565b6001600160a01b03167f03e46a8469b1d77463ddc45f1a3fe341c9deca43bc1fd817c3c7faa0409d7bf1610d6f60c0850160a08601611c64565b604080516001600160a01b0392909216825285810135602083015260608087013583830152608080880135918401919091529051918290030190a2506107596001600455565b600081600003610de657507f06ba262ceb5156c0fef18c1a9ed6f2d7063478e249a84a2e447efe50b59ac109919050565b81600103610e1557507f06b339326bb7c8508f52066ec539dafcca86bb1bb136cbb325b1f6030be7295a919050565b81600203610e4457507f27db25ed325ef30896bf4de9d8527b19f59f643ccfed116eebd2565efb879740919050565b81600303610e7357507f2934219127fc379bd62ce7d8c54940c7ba740712eb136f2418f3fedffe58d2b6919050565b81600403610ea257507f1820072ad4384968661647c8d3c7c142d3fcb3fc17350395ffd8f2d513ef4f84919050565b81600503610ed157507f04e57b5efb535e6635534268170e235e026c763c0d7a240a4afcabec07938c9a919050565b81600603610f0057507f0b0c2c03715b11acee523bb87b7fc1007ef45d7418af7d1ef17261bfb7010d36919050565b81600703610f2f57507f018395d2191f1884565d4c579588f72ee6bcd5bfa285efc8dbe2dbad1bdecfb4919050565b81600803610f5e57507f23b91ee05381772ee46bc92edbd95e4b07af50897afcb916a219267b8f8e549c919050565b81600903610f8d57507f09ddc2ae397ca6446af28ad3b799e1fa2d8bac02f20fbf7c9ce14c61a58c01d3919050565b81600a03610fbc57507f07ac9ae9b78d102c93aae619b45c7b86d96f64d43ebb5b23ac474b0a281075f8919050565b81600b03610feb57507f0944a068515f5485ba46e3cc085663b111989f2f362c0d75a72254f5e2b9c451919050565b81600c0361101a57507f0e62d046fca25110e1157d560d07f13a07f6ea093b9775b6b1f594e6ef4de8b7919050565b81600d0361104957507f05f17793239a29e435f4e6a2677047863eba182a33b06b080e122b4da6dca6a3919050565b81600e0361107857507f0226ef021e3ffe3357aef0ce1dd1983c673ee9cf289e3bf0bf253fa1ff18624e919050565b81600f036110a757507f1024072171b69ef95bfa78d85d1817761eabfc544e07379a84d51a14594cb6bc919050565b816010036110d657507f09859dfb9b13e61edc3d630f622a51205f067e09201378550a2c3176a9b3846b919050565b8160110361110557507f17ac4017d10b78b38202e00b9e935d09f4ddf5638090593a8b1e3a8c44c404fd919050565b8160120361113457507f012dde7ff841fee95843932001df3aaa52288c42a9f6eb139c16197c13ad35a7919050565b8160130361116357507f1db5d8dd9d3f34532e33ba03430917d88c42bbbdd3d1c82e93fc4858e692e7fb919050565b8160140361119257507f0ea5162940c88e9d654006875e2c847df96ebe6b450dd7d47535dd0689b7e0a6919050565b816015036111c157507f10c34a04aaf0a2dfd1f0c72f16a160f8e7d40c147ff38a2b5034b42af04a8c1a919050565b816016036111f057507f253d66832cc4753518398b848447832a439911fe19574b860d7826f4ee8eedc3919050565b8160170361121f57507f27d6feb9deb5b09a1aa5f0eb5cf89cc91f984758fccc9e536d1b118ca308fdb8919050565b8160180361124e57507f1f6c927e8d287b9c638cee8e0c11e8674e916962d66f34180223dce3e74a6592919050565b8160190361127d57507f2a245c0053c0f89444e150a015ad8e4836cbeca12fae19d96780c40aaadd5a29919050565b81601a036112ac57507f10c08dd62903b1e0546cb83c9cbe753bbaa31e54816045f45604403c9f63045b919050565b81601b036112db57507f24bbbf0e2e56df6949b53a2bff9118e2c2afb2b6b4fbd4fd26fba8af0b1a269e919050565b81601c0361130a57507f1986744abe47ed3a8725436bb7b1e920ca8f7fad9fe4a29327db9938231597b2919050565b81601d0361133957507f24d2f1056da863f53181ea9fc288ed790636819a0a59acffa5faa30d4bbdec76919050565b81601e0361136857507f23acbb4d46d8357f5342d35fa374b846f9d88dcb49bff3bb199340c93ec85aa3919050565b81601f0361139757507f248567308c1391b7d211a54ae2e80e3e0b026978c04c1bdd36e1c6ddc6d795a4919050565b60405162461bcd60e51b8152602060048201526013602482015272496e646578206f7574206f6620626f756e647360681b60448201526064016106b4565b60608167ffffffffffffffff8111156113f0576113f0611a91565b604051908082528060200260200182016040528015611419578160200160208202803683370190505b50905060005b8281101561148a5761145884848381811061143c5761143c611aa7565b9050602002013560009081526009602052604090205460ff1690565b1561148257600182828151811061147157611471611aa7565b911515602092830291909101909101525b60010161141f565b5092915050565b6002600454036114b457604051633ee5aeb560e01b815260040160405180910390fd5b6002600455565b806060013534146107595760405162461bcd60e51b815260206004820152602f60248201527f506c656173652073656e642060616d6f756e74602045544820616c6f6e67207760448201526e34ba34103a3930b739b0b1ba34b7b760891b60648201526084016106b4565b60035460008054909163ffffffff64010000000090910481169161154c91166002611d94565b63ffffffff168163ffffffff16036115bf5760405162461bcd60e51b815260206004820152603060248201527f4d65726b6c6520747265652069732066756c6c2e204e6f206d6f7265206c656160448201526f1d995cc818d85b88189948185919195960821b60648201526084016106b4565b8083600080805b60005463ffffffff9081169082161015611681576115e5600286611dc7565b63ffffffff16600003611623578392506116048163ffffffff16610db5565b63ffffffff82166000908152600160205260409020859055915061163f565b63ffffffff811660009081526001602052604090205492508391505b61166a7f0000000000000000000000000000000000000000000000000000000000000000848461075c565b9350611677600286611dea565b94506001016115c6565b50600354600090601e9061169c9063ffffffff166001611e0d565b6116a69190611dc7565b6003805463ffffffff191663ffffffff8316908117909155600090815260026020526040902085905590506116dc866001611e0d565b6003805463ffffffff929092166401000000000267ffffffff000000001990921691909117905550939695505050505050565b341561177b5760405162461bcd60e51b815260206004820152603560248201527f4d6573736167652076616c756520697320737570706f73656420746f206265206044820152747a65726f20666f722045544820696e7374616e636560581b60648201526084016106b4565b600061178d60c0830160a08401611c64565b6001600160a01b03166117a860e08401356080850135611e2a565b604051600081818185875af1925050503d80600081146117e4576040519150601f19603f3d011682016040523d82523d6000602084013e6117e9565b606091505b50509050806118485760405162461bcd60e51b815260206004820152602560248201527f7061796d656e7420746f205f726563697069656e7420646964206e6f7420676f604482015264207468727560d81b60648201526084016106b4565b60e0820135156119145761186260e0830160c08401611c64565b6001600160a01b03168260e0013560405160006040518083038185875af1925050503d80600081146118b0576040519150601f19603f3d011682016040523d82523d6000602084013e6118b5565b606091505b505080915050806119145760405162461bcd60e51b815260206004820152602360248201527f7061796d656e7420746f205f72656c6179657220646964206e6f7420676f207460448201526268727560e81b60648201526084016106b4565b5050565b60006020828403121561192a57600080fd5b5035919050565b60006080828403121561194357600080fd5b50919050565b6001600160a01b038116811461075957600080fd5b60008060006060848603121561197357600080fd5b833561197e81611949565b95602085013595506040909401359392505050565b6000602082840312156119a557600080fd5b813567ffffffffffffffff8111156119bc57600080fd5b820161010081850312156119cf57600080fd5b9392505050565b600080602083850312156119e957600080fd5b823567ffffffffffffffff80821115611a0157600080fd5b818501915085601f830112611a1557600080fd5b813581811115611a2457600080fd5b8660208260051b8501011115611a3957600080fd5b60209290920196919550909350505050565b6020808252825182820181905260009190848201906040850190845b81811015611a85578351151583529284019291840191600101611a67565b50909695505050505050565b634e487b7160e01b600052604160045260246000fd5b634e487b7160e01b600052603260045260246000fd5b60008151808452602080850194506020840160005b83811015611aee57815187529582019590820190600101611ad2565b509495945050505050565b6020815260006119cf6020830184611abd565b600060208284031215611b1e57600080fd5b5051919050565b634e487b7160e01b600052601160045260246000fd5b600063ffffffff821680611b5157611b51611b25565b6000190192915050565b600060208284031215611b6d57600080fd5b815160ff811681146119cf57600080fd5b60008060408385031215611b9157600080fd5b505080516020909101519092909150565b6000808335601e19843603018112611bb957600080fd5b83018035915067ffffffffffffffff821115611bd457600080fd5b602001915036819003821315611be957600080fd5b9250929050565b60ff8516815260606020820152826060820152828460808301376000608084830101526000601f19601f85011682016080838203016040840152611c376080820185611abd565b979650505050505050565b600060208284031215611c5457600080fd5b815180151581146119cf57600080fd5b600060208284031215611c7657600080fd5b81356119cf81611949565b600181815b80851115611cbe578163ffffffff04821115611ca457611ca4611b25565b80851615611cb157918102915b93841c9390800290611c86565b509250929050565b600082611cd557506001611d8e565b81611ce257506000611d8e565b8160018114611cf85760028114611d0257611d33565b6001915050611d8e565b60ff841115611d1357611d13611b25565b6001841b915063ffffffff821115611d2d57611d2d611b25565b50611d8e565b5060208310610133831016604e8410600b8410161715611d6a575081810a63ffffffff811115611d6557611d65611b25565b611d8e565b611d748383611c81565b8063ffffffff04821115611d8a57611d8a611b25565b0290505b92915050565b600063ffffffff611da9818516828516611cc6565b949350505050565b634e487b7160e01b600052601260045260246000fd5b600063ffffffff80841680611dde57611dde611db1565b92169190910692915050565b600063ffffffff80841680611e0157611e01611db1565b92169190910492915050565b63ffffffff81811683821601908082111561148a5761148a611b25565b81810381811115611d8e57611d8e611b2556fea264697066735822122041a758ef6e43b5e9bc6fed690927ebba174f283553f680bee6a6a003434a951664736f6c63430008170033",
    "linkReferences": {}
  },
  "methodIdentifiers": {
    "FIELD_SIZE()": "414a37ba",
    "ROOT_HISTORY_SIZE()": "cd87a3b4",
    "ZERO_VALUE()": "ec732959",
    "commitments(uint256)": "49ce8997",
    "config()": "79502c55",
    "currentRootIndex()": "90eeb02b",
    "deposit((uint256,(uint256,uint256),uint256))": "48379bda",
    "filledSubtrees(uint256)": "f178e47c",
    "getLastRoot()": "ba70f757",
    "hashLeftRight(address,uint256,uint256)": "713cd83e",
    "hasher()": "ed33639f",
    "isKnownRoot(uint256)": "a6232a93",
    "isSpent(uint256)": "5a129efe",
    "isSpentArray(uint256[])": "ea65ba49",
    "leads(uint256)": "a6892679",
    "levels()": "4ecf518b",
    "nextIndex()": "fc7e9c6f",
    "nullifierHashes(uint256)": "1f79a1e9",
    "roots(uint256)": "c2b40ae4",
    "withdraw((bytes,uint256,uint256,uint256,uint256,address,address,uint256))": "c49e06b2",
    "zeros(uint256)": "e8295588"
  },
  "id": 30
}