{
  "_format": "hh-sol-artifact-1",
  "contractName": "ETHPrivate",
  "sourceName": "contracts/ETHPrivate.sol",
  "abi": [
    {
      "inputs": [
        {
          "components": [
            {
              "internalType": "address",
              "name": "verifier",
              "type": "address"
            },
            {
              "internalType": "address",
              "name": "committee",
              "type": "address"
            },
            {
              "internalType": "address",
              "name": "router",
              "type": "address"
            },
            {
              "internalType": "address",
              "name": "hash2",
              "type": "address"
            },
            {
              "internalType": "address",
              "name": "hash4",
              "type": "address"
            },
            {
              "internalType": "uint32",
              "name": "merkleTreeHeight",
              "type": "uint32"
            }
          ],
          "internalType": "struct IPrivateZK.PrivateConfig",
          "name": "config",
          "type": "tuple"
        }
      ],
      "stateMutability": "nonpayable",
      "type": "constructor"
    },
    {
      "inputs": [],
      "name": "CommitmentFailure",
      "type": "error"
    },
    {
      "inputs": [],
      "name": "InvalidProof",
      "type": "error"
    },
    {
      "inputs": [],
      "name": "MissingRoot",
      "type": "error"
    },
    {
      "inputs": [],
      "name": "NodeAlreadySpent",
      "type": "error"
    },
    {
      "inputs": [],
      "name": "ReentrancyGuardReentrantCall",
      "type": "error"
    },
    {
      "anonymous": false,
      "inputs": [
        {
          "indexed": true,
          "internalType": "uint256",
          "name": "commitment",
          "type": "uint256"
        },
        {
          "indexed": false,
          "internalType": "uint256",
          "name": "pkx",
          "type": "uint256"
        },
        {
          "indexed": false,
          "internalType": "uint256",
          "name": "pky",
          "type": "uint256"
        },
        {
          "indexed": false,
          "internalType": "uint256",
          "name": "amount",
          "type": "uint256"
        },
        {
          "indexed": false,
          "internalType": "uint32",
          "name": "leafIndex",
          "type": "uint32"
        }
      ],
      "name": "Deposit",
      "type": "event"
    },
    {
      "anonymous": false,
      "inputs": [
        {
          "indexed": true,
          "internalType": "address",
          "name": "owner",
          "type": "address"
        },
        {
          "indexed": false,
          "internalType": "uint256",
          "name": "featureVectorHash",
          "type": "uint256"
        }
      ],
      "name": "RecoveryRegistered",
      "type": "event"
    },
    {
      "anonymous": false,
      "inputs": [
        {
          "indexed": true,
          "internalType": "address",
          "name": "oldOwner",
          "type": "address"
        },
        {
          "indexed": true,
          "internalType": "address",
          "name": "newOwner",
          "type": "address"
        },
        {
          "indexed": false,
          "internalType": "uint256",
          "name": "nullifierHash",
          "type": "uint256"
        },
        {
          "indexed": false,
          "internalType": "uint256",
          "name": "amount",
          "type": "uint256"
        }
      ],
      "name": "WalletRecovered",
      "type": "event"
    },
    {
      "anonymous": false,
      "inputs": [
        {
          "indexed": false,
          "internalType": "address",
          "name": "to",
          "type": "address"
        },
        {
          "indexed": false,
          "internalType": "uint256",
          "name": "nullifierHash",
          "type": "uint256"
        },
        {
          "indexed": false,
          "internalType": "uint256",
          "name": "lead",
          "type": "uint256"
        },
        {
          "indexed": false,
          "internalType": "uint256",
          "name": "amount",
          "type": "uint256"
        },
        {
          "indexed": true,
          "internalType": "address",
          "name": "relayer",
          "type": "address"
        }
      ],
      "name": "Withdrawal",
      "type": "event"
    },
    {
      "inputs": [],
      "name": "FIELD_SIZE",
      "outputs": [
        {
          "internalType": "uint256",
          "name": "",
          "type": "uint256"
        }
      ],
      "stateMutability": "view",
      "type": "function"
    },
    {
      "inputs": [],
      "name": "ROOT_HISTORY_SIZE",
      "outputs": [
        {
          "internalType": "uint32",
          "name": "",
          "type": "uint32"
        }
      ],
      "stateMutability": "view",
      "type": "function"
    },
    {
      "inputs": [],
      "name": "ZERO_VALUE",
      "outputs": [
        {
          "internalType": "uint256",
          "name": "",
          "type": "uint256"
        }
      ],
      "stateMutability": "view",
      "type": "function"
    },
    {
      "inputs": [
        {
          "internalType": "uint256",
          "name": "",
          "type": "uint256"
        }
      ],
      "name": "commitments",
      "outputs": [
        {
          "internalType": "bool",
          "name": "",
          "type": "bool"
        }
      ],
      "stateMutability": "view",
      "type": "function"
    },
    {
      "inputs": [],
      "name": "currentRootIndex",
      "outputs": [
        {
          "internalType": "uint32",
          "name": "",
          "type": "uint32"
        }
      ],
      "stateMutability": "view",
      "type": "function"
    },
    {
      "inputs": [
        {
          "components": [
            {
              "internalType": "uint256",
              "name": "commitment",
              "type": "uint256"
            },
            {
              "components": [
                {
                  "internalType": "uint256",
                  "name": "x",
                  "type": "uint256"
                },
                {
                  "internalType": "uint256",
                  "name": "y",
                  "type": "uint256"
                }
              ],
              "internalType": "struct IPrivateZK.BabyJubPoint",
              "name": "pk",
              "type": "tuple"
            },
            {
              "internalType": "uint256",
              "name": "amount",
              "type": "uint256"
            }
          ],
          "internalType": "struct IPrivateZK.DepositParams",
          "name": "params",
          "type": "tuple"
        }
      ],
      "name": "deposit",
      "outputs": [],
      "stateMutability": "payable",
      "type": "function"
    },
    {
      "inputs": [
        {
          "internalType": "uint256",
          "name": "",
          "type": "uint256"
        }
      ],
      "name": "filledSubtrees",
      "outputs": [
        {
          "internalType": "uint256",
          "name": "",
          "type": "uint256"
        }
      ],
      "stateMutability": "view",
      "type": "function"
    },
    {
      "inputs": [],
      "name": "getCommitmentOfSender",
      "outputs": [
        {
          "internalType": "string",
          "name": "",
          "type": "string"
        }
      ],
      "stateMutability": "view",
      "type": "function"
    },
    {
      "inputs": [],
      "name": "getLastRoot",
      "outputs": [
        {
          "internalType": "uint256",
          "name": "",
          "type": "uint256"
        }
      ],
      "stateMutability": "view",
      "type": "function"
    },
    {
      "inputs": [
        {
          "internalType": "contract IHasher",
          "name": "_hasher",
          "type": "address"
        },
        {
          "internalType": "uint256",
          "name": "_left",
          "type": "uint256"
        },
        {
          "internalType": "uint256",
          "name": "_right",
          "type": "uint256"
        }
      ],
      "name": "hashLeftRight",
      "outputs": [
        {
          "internalType": "uint256",
          "name": "",
          "type": "uint256"
        }
      ],
      "stateMutability": "pure",
      "type": "function"
    },
    {
      "inputs": [],
      "name": "hasher",
      "outputs": [
        {
          "internalType": "contract IHasher",
          "name": "",
          "type": "address"
        }
      ],
      "stateMutability": "view",
      "type": "function"
    },
    {
      "inputs": [
        {
          "internalType": "uint256",
          "name": "_root",
          "type": "uint256"
        }
      ],
      "name": "isKnownRoot",
      "outputs": [
        {
          "internalType": "bool",
          "name": "",
          "type": "bool"
        }
      ],
      "stateMutability": "view",
      "type": "function"
    },
    {
      "inputs": [
        {
          "internalType": "uint256",
          "name": "_nullifierHash",
          "type": "uint256"
        }
      ],
      "name": "isSpent",
      "outputs": [
        {
          "internalType": "bool",
          "name": "",
          "type": "bool"
        }
      ],
      "stateMutability": "view",
      "type": "function"
    },
    {
      "inputs": [
        {
          "internalType": "uint256[]",
          "name": "_nullifierHashes",
          "type": "uint256[]"
        }
      ],
      "name": "isSpentArray",
      "outputs": [
        {
          "internalType": "bool[]",
          "name": "spent",
          "type": "bool[]"
        }
      ],
      "stateMutability": "view",
      "type": "function"
    },
    {
      "inputs": [
        {
          "internalType": "uint256",
          "name": "",
          "type": "uint256"
        }
      ],
      "name": "leads",
      "outputs": [
        {
          "internalType": "address",
          "name": "",
          "type": "address"
        }
      ],
      "stateMutability": "view",
      "type": "function"
    },
    {
      "inputs": [],
      "name": "levels",
      "outputs": [
        {
          "internalType": "uint32",
          "name": "",
          "type": "uint32"
        }
      ],
      "stateMutability": "view",
      "type": "function"
    },
    {
      "inputs": [],
      "name": "nextIndex",
      "outputs": [
        {
          "internalType": "uint32",
          "name": "",
          "type": "uint32"
        }
      ],
      "stateMutability": "view",
      "type": "function"
    },
    {
      "inputs": [
        {
          "internalType": "uint256",
          "name": "",
          "type": "uint256"
        }
      ],
      "name": "nullifierHashes",
      "outputs": [
        {
          "internalType": "bool",
          "name": "",
          "type": "bool"
        }
      ],
      "stateMutability": "view",
      "type": "function"
    },
    {
      "inputs": [
        {
          "internalType": "bytes",
          "name": "proofs",
          "type": "bytes"
        },
        {
          "internalType": "uint256[]",
          "name": "_input",
          "type": "uint256[]"
        },
        {
          "internalType": "address",
          "name": "_wallet",
          "type": "address"
        }
      ],
      "name": "recoverWallet",
      "outputs": [
        {
          "internalType": "bool",
          "name": "",
          "type": "bool"
        }
      ],
      "stateMutability": "nonpayable",
      "type": "function"
    },
    {
      "inputs": [
        {
          "internalType": "uint256",
          "name": "_featureVectorHash",
          "type": "uint256"
        },
        {
          "internalType": "uint256",
          "name": "_hashOfPersonalInfoHash",
          "type": "uint256"
        },
        {
          "internalType": "string",
          "name": "_commitment",
          "type": "string"
        }
      ],
      "name": "registerForRecovery",
      "outputs": [
        {
          "internalType": "bool",
          "name": "",
          "type": "bool"
        }
      ],
      "stateMutability": "nonpayable",
      "type": "function"
    },
    {
      "inputs": [
        {
          "internalType": "uint256",
          "name": "",
          "type": "uint256"
        }
      ],
      "name": "roots",
      "outputs": [
        {
          "internalType": "uint256",
          "name": "",
          "type": "uint256"
        }
      ],
      "stateMutability": "view",
      "type": "function"
    },
    {
      "inputs": [],
      "name": "state",
      "outputs": [
        {
          "internalType": "address",
          "name": "verifier",
          "type": "address"
        },
        {
          "internalType": "address",
          "name": "committee",
          "type": "address"
        },
        {
          "internalType": "address",
          "name": "router",
          "type": "address"
        },
        {
          "internalType": "address",
          "name": "hash2",
          "type": "address"
        },
        {
          "internalType": "address",
          "name": "hash4",
          "type": "address"
        },
        {
          "internalType": "uint32",
          "name": "merkleTreeHeight",
          "type": "uint32"
        }
      ],
      "stateMutability": "view",
      "type": "function"
    },
    {
      "inputs": [
        {
          "components": [
            {
              "internalType": "bytes",
              "name": "proof",
              "type": "bytes"
            },
            {
              "internalType": "uint256",
              "name": "root",
              "type": "uint256"
            },
            {
              "internalType": "uint256",
              "name": "nullifierHash",
              "type": "uint256"
            },
            {
              "internalType": "uint256",
              "name": "lead",
              "type": "uint256"
            },
            {
              "internalType": "uint256",
              "name": "amount",
              "type": "uint256"
            },
            {
              "internalType": "address payable",
              "name": "recipient",
              "type": "address"
            },
            {
              "internalType": "address payable",
              "name": "relayer",
              "type": "address"
            },
            {
              "internalType": "uint256",
              "name": "fee",
              "type": "uint256"
            },
            {
              "internalType": "uint256",
              "name": "faceVectorHash",
              "type": "uint256"
            },
            {
              "internalType": "bytes",
              "name": "reedSolomonProof",
              "type": "bytes"
            },
            {
              "internalType": "uint256[]",
              "name": "publicSignals",
              "type": "uint256[]"
            }
          ],
          "internalType": "struct IPrivateZK.WithdrawParams",
          "name": "params",
          "type": "tuple"
        }
      ],
      "name": "withdraw",
      "outputs": [],
      "stateMutability": "payable",
      "type": "function"
    },
    {
      "inputs": [
        {
          "internalType": "uint256",
          "name": "i",
          "type": "uint256"
        }
      ],
      "name": "zeros",
      "outputs": [
        {
          "internalType": "uint256",
          "name": "",
          "type": "uint256"
        }
      ],
      "stateMutability": "pure",
      "type": "function"
    }
  ],
  "bytecode": "0x60a0604052600380546001600160401b03191690553480156200002157600080fd5b506040516200366f3803806200366f8339810160408190526200004491620008ee565b808060a00151816060015160008263ffffffff1611620000b75760405162461bcd60e51b815260206004820152602360248201527f5f6c6576656c732073686f756c642062652067726561746572207468616e207a60448201526265726f60e81b60648201526084015b60405180910390fd5b60208263ffffffff16106200010f5760405162461bcd60e51b815260206004820152601e60248201527f5f6c6576656c732073686f756c64206265206c657373207468616e20333200006044820152606401620000ae565b6000805463ffffffff191663ffffffff84161781556001600160a01b0382166080525b8263ffffffff168163ffffffff16101562000183576200015863ffffffff821662000271565b63ffffffff8216600090815260016020526040902055806200017a81620009be565b91505062000132565b50620001a162000195600184620009e4565b63ffffffff1662000271565b60008052600260209081527fac33ff75c19e70fe83507db0d683fd3465c996598dc972688b7ace676c89077b9190915560016004558351600580546001600160a01b039283166001600160a01b0319918216179091559185015160068054918316918416919091179055604085015160078054918316918416919091179055606085015160088054918316919093161790915560808401516009805460a09096015163ffffffff16600160a01b026001600160c01b03199096169190921617939093179092555062000a0b915050565b600081600003620002a357507f06ba262ceb5156c0fef18c1a9ed6f2d7063478e249a84a2e447efe50b59ac109919050565b81600103620002d357507f06b339326bb7c8508f52066ec539dafcca86bb1bb136cbb325b1f6030be7295a919050565b816002036200030357507f27db25ed325ef30896bf4de9d8527b19f59f643ccfed116eebd2565efb879740919050565b816003036200033357507f2934219127fc379bd62ce7d8c54940c7ba740712eb136f2418f3fedffe58d2b6919050565b816004036200036357507f1820072ad4384968661647c8d3c7c142d3fcb3fc17350395ffd8f2d513ef4f84919050565b816005036200039357507f04e57b5efb535e6635534268170e235e026c763c0d7a240a4afcabec07938c9a919050565b81600603620003c357507f0b0c2c03715b11acee523bb87b7fc1007ef45d7418af7d1ef17261bfb7010d36919050565b81600703620003f357507f018395d2191f1884565d4c579588f72ee6bcd5bfa285efc8dbe2dbad1bdecfb4919050565b816008036200042357507f23b91ee05381772ee46bc92edbd95e4b07af50897afcb916a219267b8f8e549c919050565b816009036200045357507f09ddc2ae397ca6446af28ad3b799e1fa2d8bac02f20fbf7c9ce14c61a58c01d3919050565b81600a036200048357507f07ac9ae9b78d102c93aae619b45c7b86d96f64d43ebb5b23ac474b0a281075f8919050565b81600b03620004b357507f0944a068515f5485ba46e3cc085663b111989f2f362c0d75a72254f5e2b9c451919050565b81600c03620004e357507f0e62d046fca25110e1157d560d07f13a07f6ea093b9775b6b1f594e6ef4de8b7919050565b81600d036200051357507f05f17793239a29e435f4e6a2677047863eba182a33b06b080e122b4da6dca6a3919050565b81600e036200054357507f0226ef021e3ffe3357aef0ce1dd1983c673ee9cf289e3bf0bf253fa1ff18624e919050565b81600f036200057357507f1024072171b69ef95bfa78d85d1817761eabfc544e07379a84d51a14594cb6bc919050565b81601003620005a357507f09859dfb9b13e61edc3d630f622a51205f067e09201378550a2c3176a9b3846b919050565b81601103620005d357507f17ac4017d10b78b38202e00b9e935d09f4ddf5638090593a8b1e3a8c44c404fd919050565b816012036200060357507f012dde7ff841fee95843932001df3aaa52288c42a9f6eb139c16197c13ad35a7919050565b816013036200063357507f1db5d8dd9d3f34532e33ba03430917d88c42bbbdd3d1c82e93fc4858e692e7fb919050565b816014036200066357507f0ea5162940c88e9d654006875e2c847df96ebe6b450dd7d47535dd0689b7e0a6919050565b816015036200069357507f10c34a04aaf0a2dfd1f0c72f16a160f8e7d40c147ff38a2b5034b42af04a8c1a919050565b81601603620006c357507f253d66832cc4753518398b848447832a439911fe19574b860d7826f4ee8eedc3919050565b81601703620006f357507f27d6feb9deb5b09a1aa5f0eb5cf89cc91f984758fccc9e536d1b118ca308fdb8919050565b816018036200072357507f1f6c927e8d287b9c638cee8e0c11e8674e916962d66f34180223dce3e74a6592919050565b816019036200075357507f2a245c0053c0f89444e150a015ad8e4836cbeca12fae19d96780c40aaadd5a29919050565b81601a036200078357507f10c08dd62903b1e0546cb83c9cbe753bbaa31e54816045f45604403c9f63045b919050565b81601b03620007b357507f24bbbf0e2e56df6949b53a2bff9118e2c2afb2b6b4fbd4fd26fba8af0b1a269e919050565b81601c03620007e357507f1986744abe47ed3a8725436bb7b1e920ca8f7fad9fe4a29327db9938231597b2919050565b81601d036200081357507f24d2f1056da863f53181ea9fc288ed790636819a0a59acffa5faa30d4bbdec76919050565b81601e036200084357507f23acbb4d46d8357f5342d35fa374b846f9d88dcb49bff3bb199340c93ec85aa3919050565b81601f036200087357507f248567308c1391b7d211a54ae2e80e3e0b026978c04c1bdd36e1c6ddc6d795a4919050565b60405162461bcd60e51b815260206004820152601360248201527f496e646578206f7574206f6620626f756e6473000000000000000000000000006044820152606401620000ae565b919050565b80516001600160a01b0381168114620008bc57600080fd5b805163ffffffff81168114620008bc57600080fd5b600060c082840312156200090157600080fd5b60405160c081016001600160401b03811182821017156200093257634e487b7160e01b600052604160045260246000fd5b6040526200094083620008c1565b81526200095060208401620008c1565b60208201526200096360408401620008c1565b60408201526200097660608401620008c1565b60608201526200098960808401620008c1565b60808201526200099c60a08401620008d9565b60a08201529392505050565b634e487b7160e01b600052601160045260246000fd5b600063ffffffff808316818103620009da57620009da620009a8565b6001019392505050565b63ffffffff82811682821603908082111562000a045762000a04620009a8565b5092915050565b608051612c4162000a2e6000396000818161056e0152611f380152612c416000f3fe60806040526004361061018b5760003560e01c8063a6892679116100d6578063e82955881161007f578063ed33639f11610059578063ed33639f1461055c578063f178e47c14610590578063fc7e9c6f146105bd57600080fd5b8063e8295588146104db578063ea65ba49146104fb578063ec7329591461052857600080fd5b8063c19d93fb116100b0578063c19d93fb14610408578063c2b40ae414610499578063cd87a3b4146104c657600080fd5b8063a68926791461036e578063a9bb8f03146103bc578063ba70f757146103de57600080fd5b80635a129efe11610138578063840713ee11610112578063840713ee1461031157806390eeb02b14610331578063a6232a931461034e57600080fd5b80635a129efe146102ae578063713cd83e146102de57806381c2f1ec146102fe57600080fd5b806348379bda1161016957806348379bda1461023757806349ce89971461024c5780634ecf518b1461027c57600080fd5b80631c9a4cda146101905780631f79a1e9146101c5578063414a37ba146101f5575b600080fd5b34801561019c57600080fd5b506101b06101ab3660046122bd565b6105e2565b60405190151581526020015b60405180910390f35b3480156101d157600080fd5b506101b06101e0366004612321565b600a6020526000908152604090205460ff1681565b34801561020157600080fd5b506102297f30644e72e131a029b85045b68181585d2833e84879b9709143e1f593f000000181565b6040519081526020016101bc565b61024a61024536600461233a565b6106d6565b005b34801561025857600080fd5b506101b0610267366004612321565b600c6020526000908152604090205460ff1681565b34801561028857600080fd5b506000546102999063ffffffff1681565b60405163ffffffff90911681526020016101bc565b3480156102ba57600080fd5b506101b06102c9366004612321565b6000908152600a602052604090205460ff1690565b3480156102ea57600080fd5b506102296102f9366004612367565b610959565b61024a61030c36600461239c565b610b19565b34801561031d57600080fd5b506101b061032c3660046123ea565b6110d9565b34801561033d57600080fd5b506003546102999063ffffffff1681565b34801561035a57600080fd5b506101b0610369366004612321565b611570565b34801561037a57600080fd5b506103a4610389366004612321565b600b602052600090815260409020546001600160a01b031681565b6040516001600160a01b0390911681526020016101bc565b3480156103c857600080fd5b506103d16115ef565b6040516101bc9190612523565b3480156103ea57600080fd5b5060035463ffffffff16600090815260026020526040902054610229565b34801561041457600080fd5b50600554600654600754600854600954610451946001600160a01b039081169481169381169281169190811690600160a01b900463ffffffff1686565b604080516001600160a01b0397881681529587166020870152938616938501939093529084166060840152909216608082015263ffffffff90911660a082015260c0016101bc565b3480156104a557600080fd5b506102296104b4366004612321565b60026020526000908152604090205481565b3480156104d257600080fd5b50610299601e81565b3480156104e757600080fd5b506102296104f6366004612321565b611690565b34801561050757600080fd5b5061051b610516366004612536565b611cbf565b6040516101bc91906125ab565b34801561053457600080fd5b506102297f06ba262ceb5156c0fef18c1a9ed6f2d7063478e249a84a2e447efe50b59ac10981565b34801561056857600080fd5b506103a47f000000000000000000000000000000000000000000000000000000000000000081565b34801561059c57600080fd5b506102296105ab366004612321565b60016020526000908152604090205481565b3480156105c957600080fd5b5060035461029990640100000000900463ffffffff1681565b336000908152600f602052604081205460ff16156106475760405162461bcd60e51b815260206004820152601a60248201527f57616c6c657420616c726561647920726567697374657265642100000000000060448201526064015b60405180910390fd5b336000908152600e6020908152604080832087905560108252808320869055600d90915290206106778382612674565b50336000818152600f602052604090819020805460ff19166001179055517f50a387e35b2616eefad84eb322115db605563062b3391f88f5dd3f98203d5cc3906106c49087815260200190565b60405180910390a25060019392505050565b6106de611d85565b336000908152600f602052604090205460ff1661073d5760405162461bcd60e51b815260206004820152601960248201527f4e6f742068617665206964656e74697479207265676974727900000000000000604482015260640161063e565b61074681611daf565b60408051600480825260a082019092526000916020820160808036833701905050905081600001358160008151811061078157610781612734565b6020026020010181815250508160200160000135816001815181106107a8576107a8612734565b6020026020010181815250508160200160200135816002815181106107cf576107cf612734565b6020026020010181815250508160600135816003815181106107f3576107f3612734565b602090810291909101015260095460405163311083ed60e21b81526000916001600160a01b03169063c4420fb49061082f908590600401612785565b602060405180830381865afa15801561084c573d6000803e3d6000fd5b505050506040513d601f19601f820116820180604052508101906108709190612798565b6000818152600c602052604090205490915060ff16156108a35760405163abbfa8bd60e01b815260040160405180910390fd5b60006108ae82611e1a565b6000838152600c60209081526040808320805460ff19166001179055338352600e82528083205483526011825291829020606088013590819055825193945085937f14d72f3f943e9f1586fc652881ce361e09b0d4279a38ac887a79e89df39e694093610941938a013592908a01359187909384526020840192909252604083015263ffffffff16606082015260800190565b60405180910390a25050506109566001600455565b50565b60007f30644e72e131a029b85045b68181585d2833e84879b9709143e1f593f000000183106109ca5760405162461bcd60e51b815260206004820181905260248201527f5f6c6566742073686f756c6420626520696e7369646520746865206669656c64604482015260640161063e565b7f30644e72e131a029b85045b68181585d2833e84879b9709143e1f593f00000018210610a435760405162461bcd60e51b815260206004820152602160248201527f5f72696768742073686f756c6420626520696e7369646520746865206669656c6044820152601960fa1b606482015260840161063e565b6040805160028082526060820183526000926020830190803683370190505090508381600081518110610a7857610a78612734565b6020026020010181815250508281600181518110610a9857610a98612734565b602090810291909101015260405163311083ed60e21b81526001600160a01b0386169063c4420fb490610acf908490600401612785565b602060405180830381865afa158015610aec573d6000803e3d6000fd5b505050506040513d601f19601f82011682018060405250810190610b109190612798565b95945050505050565b610b21611d85565b610100810135600090815260116020526040902054610b825760405162461bcd60e51b815260206004820152601460248201527f52656d61696e20616d6f756e20696e76616c6964000000000000000000000000604482015260640161063e565b6005546001600160a01b031663b4d499866004610ba36101208501856127b1565b610bb16101408701876127ff565b6040518663ffffffff1660e01b8152600401610bd1959493929190612872565b602060405180830381865afa158015610bee573d6000803e3d6000fd5b505050506040513d601f19601f82011682018060405250810190610c1291906128e1565b610c4e5760405162461bcd60e51b815260206004820152600d60248201526c24b73b30b634b210383937b7b360991b604482015260640161063e565b6040808201356000908152600a602052205460ff1615610c8157604051632aa7697360e01b815260040160405180910390fd5b610c8e8160200135611570565b610cab5760405163316007fd60e21b815260040160405180910390fd5b600554604051633757a45160e11b8152600360048201526000916001600160a01b031690636eaf48a290602401602060405180830381865afa158015610cf5573d6000803e3d6000fd5b505050506040513d601f19601f82011682018060405250810190610d199190612903565b60ff1667ffffffffffffffff811115610d3457610d3461221e565b604051908082528060200260200182016040528015610d5d578160200160208202803683370190505b509050816020013581600081518110610d7857610d78612734565b602002602001018181525050816040013581600181518110610d9c57610d9c612734565b602002602001018181525050816060013581600281518110610dc057610dc0612734565b602002602001018181525050816080013581600381518110610de457610de4612734565b60209081029190910101526006546040805163ee5cf15360e01b815281516001600160a01b039093169263ee5cf153926004808401939192918290030181865afa158015610e36573d6000803e3d6000fd5b505050506040513d601f19601f82011682018060405250810190610e5a9190612926565b82600481518110610e6d57610e6d612734565b6020026020010183600581518110610e8757610e87612734565b602090810291909101019190915252610ea660c0830160a0840161294a565b6001600160a01b031681600681518110610ec257610ec2612734565b6020908102919091010152610edd60e0830160c0840161294a565b6001600160a01b031681600781518110610ef957610ef9612734565b6020026020010181815250508160e0013581600881518110610f1d57610f1d612734565b60209081029190910101526005546001600160a01b031663b4d499866003610f4585806127b1565b856040518563ffffffff1660e01b8152600401610f659493929190612967565b602060405180830381865afa158015610f82573d6000803e3d6000fd5b505050506040513d601f19601f82011682018060405250810190610fa691906128e1565b610fc3576040516309bde33960e01b815260040160405180910390fd5b6040808301356000908152600a6020908152828220805460ff1916600117905560608501358252600b8152828220805473ffffffffffffffffffffffffffffffffffffffff191633179055610100850135825260119052205461102b906080840135906129b7565b6101008301356000908152601160205260409020556110498261200d565b61105960e0830160c0840161294a565b6001600160a01b03167f03e46a8469b1d77463ddc45f1a3fe341c9deca43bc1fd817c3c7faa0409d7bf161109360c0850160a0860161294a565b604080516001600160a01b0392909216825285810135602083015260608087013583830152608080880135918401919091529051918290030190a2506109566001600455565b6001600160a01b0381166000908152600f602052604081205460ff1661114c5760405162461bcd60e51b815260206004820152602260248201527f57616c6c6574206e6f74207265676973746572656420666f72207265636f7665604482015261727960f01b606482015260840161063e565b600554604051635a6a4cc360e11b81526001600160a01b039091169063b4d4998690611180906004908890889083016129d0565b602060405180830381865afa15801561119d573d6000803e3d6000fd5b505050506040513d601f19601f820116820180604052508101906111c191906128e1565b6111fd5760405162461bcd60e51b815260206004820152600d60248201526c24b73b30b634b210383937b7b360991b604482015260640161063e565b6001600160a01b0382166000908152600e602052604081205484519091859161122857611228612734565b60200260200101511461127d5760405162461bcd60e51b815260206004820152601b60248201527f496e76616c6964206665617475726520766563746f7220686173680000000000604482015260640161063e565b6001600160a01b0382166000908152601060205260409020548351849060029081106112ab576112ab612734565b60200260200101511461130b5760405162461bcd60e51b815260206004820152602260248201527f496e76616c69642068617368206f6620706572736f6e616c20696e666f2068616044820152610e6d60f31b606482015260840161063e565b601260008460018151811061132257611322612734565b60209081029190910181015182528101919091526040016000205460ff161561138d5760405162461bcd60e51b815260206004820152601b60248201527f4e756c6c6966696572206861736820616c726561647920757365640000000000604482015260640161063e565b6001600160a01b0382166000908152600e6020908152604080832054835260119091529020546113ff5760405162461bcd60e51b815260206004820152601160248201527f4e6f2065746820746f207265636f766572000000000000000000000000000000604482015260640161063e565b6001601260008560018151811061141857611418612734565b60209081029190910181015182528181019290925260409081016000908120805460ff1916941515949094179093556001600160a01b0385168352600e825280832054835260119091528082208054908390559051909190339083908381818185875af1925050503d80600081146114ac576040519150601f19603f3d011682016040523d82523d6000602084013e6114b1565b606091505b50509050806114f45760405162461bcd60e51b815260206004820152600f60248201526e151c985b9cd9995c8819985a5b1959608a1b604482015260640161063e565b336001600160a01b0316846001600160a01b03167f5f82f541790d1eaf97f33ffd26619257d76cd86fb247d931acc872a61f0086e48760018151811061153c5761153c612734565b60200260200101518560405161155c929190918252602082015260400190565b60405180910390a350600195945050505050565b60008160000361158257506000919050565b60035463ffffffff16805b63ffffffff811660009081526002602052604090205484036115b3575060019392505050565b8063ffffffff166000036115c55750601e5b806115cf81612a08565b9150508163ffffffff168163ffffffff160361158d575060009392505050565b336000908152600d6020526040902080546060919061160d906125f1565b80601f0160208091040260200160405190810160405280929190818152602001828054611639906125f1565b80156116865780601f1061165b57610100808354040283529160200191611686565b820191906000526020600020905b81548152906001019060200180831161166957829003601f168201915b5050505050905090565b6000816000036116c157507f06ba262ceb5156c0fef18c1a9ed6f2d7063478e249a84a2e447efe50b59ac109919050565b816001036116f057507f06b339326bb7c8508f52066ec539dafcca86bb1bb136cbb325b1f6030be7295a919050565b8160020361171f57507f27db25ed325ef30896bf4de9d8527b19f59f643ccfed116eebd2565efb879740919050565b8160030361174e57507f2934219127fc379bd62ce7d8c54940c7ba740712eb136f2418f3fedffe58d2b6919050565b8160040361177d57507f1820072ad4384968661647c8d3c7c142d3fcb3fc17350395ffd8f2d513ef4f84919050565b816005036117ac57507f04e57b5efb535e6635534268170e235e026c763c0d7a240a4afcabec07938c9a919050565b816006036117db57507f0b0c2c03715b11acee523bb87b7fc1007ef45d7418af7d1ef17261bfb7010d36919050565b8160070361180a57507f018395d2191f1884565d4c579588f72ee6bcd5bfa285efc8dbe2dbad1bdecfb4919050565b8160080361183957507f23b91ee05381772ee46bc92edbd95e4b07af50897afcb916a219267b8f8e549c919050565b8160090361186857507f09ddc2ae397ca6446af28ad3b799e1fa2d8bac02f20fbf7c9ce14c61a58c01d3919050565b81600a0361189757507f07ac9ae9b78d102c93aae619b45c7b86d96f64d43ebb5b23ac474b0a281075f8919050565b81600b036118c657507f0944a068515f5485ba46e3cc085663b111989f2f362c0d75a72254f5e2b9c451919050565b81600c036118f557507f0e62d046fca25110e1157d560d07f13a07f6ea093b9775b6b1f594e6ef4de8b7919050565b81600d0361192457507f05f17793239a29e435f4e6a2677047863eba182a33b06b080e122b4da6dca6a3919050565b81600e0361195357507f0226ef021e3ffe3357aef0ce1dd1983c673ee9cf289e3bf0bf253fa1ff18624e919050565b81600f0361198257507f1024072171b69ef95bfa78d85d1817761eabfc544e07379a84d51a14594cb6bc919050565b816010036119b157507f09859dfb9b13e61edc3d630f622a51205f067e09201378550a2c3176a9b3846b919050565b816011036119e057507f17ac4017d10b78b38202e00b9e935d09f4ddf5638090593a8b1e3a8c44c404fd919050565b81601203611a0f57507f012dde7ff841fee95843932001df3aaa52288c42a9f6eb139c16197c13ad35a7919050565b81601303611a3e57507f1db5d8dd9d3f34532e33ba03430917d88c42bbbdd3d1c82e93fc4858e692e7fb919050565b81601403611a6d57507f0ea5162940c88e9d654006875e2c847df96ebe6b450dd7d47535dd0689b7e0a6919050565b81601503611a9c57507f10c34a04aaf0a2dfd1f0c72f16a160f8e7d40c147ff38a2b5034b42af04a8c1a919050565b81601603611acb57507f253d66832cc4753518398b848447832a439911fe19574b860d7826f4ee8eedc3919050565b81601703611afa57507f27d6feb9deb5b09a1aa5f0eb5cf89cc91f984758fccc9e536d1b118ca308fdb8919050565b81601803611b2957507f1f6c927e8d287b9c638cee8e0c11e8674e916962d66f34180223dce3e74a6592919050565b81601903611b5857507f2a245c0053c0f89444e150a015ad8e4836cbeca12fae19d96780c40aaadd5a29919050565b81601a03611b8757507f10c08dd62903b1e0546cb83c9cbe753bbaa31e54816045f45604403c9f63045b919050565b81601b03611bb657507f24bbbf0e2e56df6949b53a2bff9118e2c2afb2b6b4fbd4fd26fba8af0b1a269e919050565b81601c03611be557507f1986744abe47ed3a8725436bb7b1e920ca8f7fad9fe4a29327db9938231597b2919050565b81601d03611c1457507f24d2f1056da863f53181ea9fc288ed790636819a0a59acffa5faa30d4bbdec76919050565b81601e03611c4357507f23acbb4d46d8357f5342d35fa374b846f9d88dcb49bff3bb199340c93ec85aa3919050565b81601f03611c7257507f248567308c1391b7d211a54ae2e80e3e0b026978c04c1bdd36e1c6ddc6d795a4919050565b60405162461bcd60e51b815260206004820152601360248201527f496e646578206f7574206f6620626f756e647300000000000000000000000000604482015260640161063e565b919050565b60608167ffffffffffffffff811115611cda57611cda61221e565b604051908082528060200260200182016040528015611d03578160200160208202803683370190505b50905060005b82811015611d7e57611d42848483818110611d2657611d26612734565b905060200201356000908152600a602052604090205460ff1690565b15611d6c576001828281518110611d5b57611d5b612734565b911515602092830291909101909101525b80611d7681612a28565b915050611d09565b5092915050565b600260045403611da857604051633ee5aeb560e01b815260040160405180910390fd5b6002600455565b806060013534146109565760405162461bcd60e51b815260206004820152602f60248201527f506c656173652073656e642060616d6f756e74602045544820616c6f6e67207760448201526e34ba34103a3930b739b0b1ba34b7b760891b606482015260840161063e565b60035460008054909163ffffffff640100000000909104811691611e4091166002612b52565b63ffffffff168163ffffffff1603611eb35760405162461bcd60e51b815260206004820152603060248201527f4d65726b6c6520747265652069732066756c6c2e204e6f206d6f7265206c656160448201526f1d995cc818d85b88189948185919195960821b606482015260840161063e565b8083600080805b60005463ffffffff9081169082161015611f7f57611ed9600286612b85565b63ffffffff16600003611f1757839250611ef88163ffffffff16611690565b63ffffffff821660009081526001602052604090208590559150611f33565b63ffffffff811660009081526001602052604090205492508391505b611f5e7f00000000000000000000000000000000000000000000000000000000000000008484610959565b9350611f6b600286612ba8565b945080611f7781612bcb565b915050611eba565b50600354600090601e90611f9a9063ffffffff166001612bee565b611fa49190612b85565b6003805463ffffffff191663ffffffff831690811790915560009081526002602052604090208590559050611fda866001612bee565b6003805463ffffffff929092166401000000000267ffffffff000000001990921691909117905550939695505050505050565b34156120815760405162461bcd60e51b815260206004820152603560248201527f4d6573736167652076616c756520697320737570706f73656420746f2062652060448201527f7a65726f20666f722045544820696e7374616e63650000000000000000000000606482015260840161063e565b600061209360c0830160a0840161294a565b6001600160a01b03166120ae60e084013560808501356129b7565b604051600081818185875af1925050503d80600081146120ea576040519150601f19603f3d011682016040523d82523d6000602084013e6120ef565b606091505b505090508061214e5760405162461bcd60e51b815260206004820152602560248201527f7061796d656e7420746f205f726563697069656e7420646964206e6f7420676f604482015264207468727560d81b606482015260840161063e565b60e08201351561221a5761216860e0830160c0840161294a565b6001600160a01b03168260e0013560405160006040518083038185875af1925050503d80600081146121b6576040519150601f19603f3d011682016040523d82523d6000602084013e6121bb565b606091505b5050809150508061221a5760405162461bcd60e51b815260206004820152602360248201527f7061796d656e7420746f205f72656c6179657220646964206e6f7420676f207460448201526268727560e81b606482015260840161063e565b5050565b634e487b7160e01b600052604160045260246000fd5b604051601f8201601f1916810167ffffffffffffffff8111828210171561225d5761225d61221e565b604052919050565b600067ffffffffffffffff83111561227f5761227f61221e565b612292601f8401601f1916602001612234565b90508281528383830111156122a657600080fd5b828260208301376000602084830101529392505050565b6000806000606084860312156122d257600080fd5b8335925060208401359150604084013567ffffffffffffffff8111156122f757600080fd5b8401601f8101861361230857600080fd5b61231786823560208401612265565b9150509250925092565b60006020828403121561233357600080fd5b5035919050565b60006080828403121561234c57600080fd5b50919050565b6001600160a01b038116811461095657600080fd5b60008060006060848603121561237c57600080fd5b833561238781612352565b95602085013595506040909401359392505050565b6000602082840312156123ae57600080fd5b813567ffffffffffffffff8111156123c557600080fd5b820161016081850312156123d857600080fd5b9392505050565b8035611cba81612352565b6000806000606084860312156123ff57600080fd5b833567ffffffffffffffff8082111561241757600080fd5b818601915086601f83011261242b57600080fd5b602061243b888435838601612265565b95508087013592508183111561245057600080fd5b828701925087601f84011261246457600080fd5b8235828111156124765761247661221e565b8060051b9250612487828401612234565b818152928401820192828101908a8511156124a157600080fd5b948301945b848610156124bf578535825294830194908301906124a6565b8097505050505050506124d4604085016123df565b90509250925092565b6000815180845260005b81811015612503576020818501810151868301820152016124e7565b506000602082860101526020601f19601f83011685010191505092915050565b6020815260006123d860208301846124dd565b6000806020838503121561254957600080fd5b823567ffffffffffffffff8082111561256157600080fd5b818501915085601f83011261257557600080fd5b81358181111561258457600080fd5b8660208260051b850101111561259957600080fd5b60209290920196919550909350505050565b6020808252825182820181905260009190848201906040850190845b818110156125e55783511515835292840192918401916001016125c7565b50909695505050505050565b600181811c9082168061260557607f821691505b60208210810361234c57634e487b7160e01b600052602260045260246000fd5b601f82111561266f57600081815260208120601f850160051c8101602086101561264c5750805b601f850160051c820191505b8181101561266b57828155600101612658565b5050505b505050565b815167ffffffffffffffff81111561268e5761268e61221e565b6126a28161269c84546125f1565b84612625565b602080601f8311600181146126d757600084156126bf5750858301515b600019600386901b1c1916600185901b17855561266b565b600085815260208120601f198616915b82811015612706578886015182559484019460019091019084016126e7565b50858210156127245787850151600019600388901b60f8161c191681555b5050505050600190811b01905550565b634e487b7160e01b600052603260045260246000fd5b600081518084526020808501945080840160005b8381101561277a5781518752958201959082019060010161275e565b509495945050505050565b6020815260006123d8602083018461274a565b6000602082840312156127aa57600080fd5b5051919050565b6000808335601e198436030181126127c857600080fd5b83018035915067ffffffffffffffff8211156127e357600080fd5b6020019150368190038213156127f857600080fd5b9250929050565b6000808335601e1984360301811261281657600080fd5b83018035915067ffffffffffffffff82111561283157600080fd5b6020019150600581901b36038213156127f857600080fd5b81835281816020850137506000828201602090810191909152601f909101601f19169091010190565b60ff8616815260606020820152600061288f606083018688612849565b82810360408401528381527f07ffffffffffffffffffffffffffffffffffffffffffffffffffffffffffffff8411156128c757600080fd5b8360051b8086602084013701602001979650505050505050565b6000602082840312156128f357600080fd5b815180151581146123d857600080fd5b60006020828403121561291557600080fd5b815160ff811681146123d857600080fd5b6000806040838503121561293957600080fd5b505080516020909101519092909150565b60006020828403121561295c57600080fd5b81356123d881612352565b60ff85168152606060208201526000612984606083018587612849565b8281036040840152612996818561274a565b979650505050505050565b634e487b7160e01b600052601160045260246000fd5b818103818111156129ca576129ca6129a1565b92915050565b60ff841681526060602082015260006129ec60608301856124dd565b82810360408401526129fe818561274a565b9695505050505050565b600063ffffffff821680612a1e57612a1e6129a1565b6000190192915050565b600060018201612a3a57612a3a6129a1565b5060010190565b600181815b80851115612a7e578163ffffffff04821115612a6457612a646129a1565b80851615612a7157918102915b93841c9390800290612a46565b509250929050565b600082612a95575060016129ca565b81612aa2575060006129ca565b8160018114612ab85760028114612ac257612af3565b60019150506129ca565b60ff841115612ad357612ad36129a1565b6001841b915063ffffffff821115612aed57612aed6129a1565b506129ca565b5060208310610133831016604e8410600b8410161715612b2a575081810a63ffffffff811115612b2557612b256129a1565b6129ca565b612b348383612a41565b8063ffffffff04821115612b4a57612b4a6129a1565b029392505050565b600063ffffffff612b67818516828516612a86565b949350505050565b634e487b7160e01b600052601260045260246000fd5b600063ffffffff80841680612b9c57612b9c612b6f565b92169190910692915050565b600063ffffffff80841680612bbf57612bbf612b6f565b92169190910492915050565b600063ffffffff808316818103612be457612be46129a1565b6001019392505050565b63ffffffff818116838216019080821115611d7e57611d7e6129a156fea264697066735822122029040dbf8b32726a4476a75d0774eb1cbd184e9cd0a22553c7919fc9bfda219364736f6c63430008140033",
  "linkReferences": {},
  "deployedLinkReferences": {}
}